{
  "contractName": "donations",
  "abi": [
    {
      "inputs": [
        {
          "internalType": "uint256",
          "name": "_target",
          "type": "uint256"
        },
        {
          "internalType": "uint256",
          "name": "_startDate",
          "type": "uint256"
        },
        {
          "internalType": "uint256",
          "name": "_deadline",
          "type": "uint256"
        },
        {
          "internalType": "uint256",
          "name": "_noOfBeneficiary",
          "type": "uint256"
        },
        {
          "internalType": "contract JiwanKoshToken",
          "name": "_token",
          "type": "address"
        }
      ],
      "stateMutability": "nonpayable",
      "type": "constructor"
    },
    {
      "anonymous": false,
      "inputs": [
        {
          "indexed": true,
          "internalType": "address",
          "name": "donor",
          "type": "address"
        },
        {
          "indexed": false,
          "internalType": "uint256",
          "name": "donatedAmount",
          "type": "uint256"
        }
      ],
      "name": "donationLog",
      "type": "event"
    },
    {
      "inputs": [],
      "name": "JKT",
      "outputs": [
        {
          "internalType": "contract JiwanKoshToken",
          "name": "",
          "type": "address"
        }
      ],
      "stateMutability": "view",
      "type": "function"
    },
    {
      "inputs": [],
      "name": "aidAgency",
      "outputs": [
        {
          "internalType": "address",
          "name": "",
          "type": "address"
        }
      ],
      "stateMutability": "view",
      "type": "function"
    },
    {
      "inputs": [],
      "name": "amountCollected",
      "outputs": [
        {
          "internalType": "uint256",
          "name": "",
          "type": "uint256"
        }
      ],
      "stateMutability": "view",
      "type": "function"
    },
    {
      "inputs": [],
      "name": "claimableFund",
      "outputs": [
        {
          "internalType": "uint256",
          "name": "",
          "type": "uint256"
        }
      ],
      "stateMutability": "view",
      "type": "function"
    },
    {
      "inputs": [],
      "name": "deadline",
      "outputs": [
        {
          "internalType": "uint256",
          "name": "",
          "type": "uint256"
        }
      ],
      "stateMutability": "view",
      "type": "function"
    },
    {
      "inputs": [
        {
          "internalType": "address",
          "name": "",
          "type": "address"
        }
      ],
      "name": "donors",
      "outputs": [
        {
          "internalType": "uint256",
          "name": "",
          "type": "uint256"
        }
      ],
      "stateMutability": "view",
      "type": "function"
    },
    {
      "inputs": [],
      "name": "minContribution",
      "outputs": [
        {
          "internalType": "uint256",
          "name": "",
          "type": "uint256"
        }
      ],
      "stateMutability": "view",
      "type": "function"
    },
    {
      "inputs": [],
      "name": "noOfBeneficiary",
      "outputs": [
        {
          "internalType": "uint256",
          "name": "",
          "type": "uint256"
        }
      ],
      "stateMutability": "view",
      "type": "function"
    },
    {
      "inputs": [],
      "name": "noOfDonors",
      "outputs": [
        {
          "internalType": "uint256",
          "name": "",
          "type": "uint256"
        }
      ],
      "stateMutability": "view",
      "type": "function"
    },
    {
      "inputs": [],
      "name": "startDate",
      "outputs": [
        {
          "internalType": "uint256",
          "name": "",
          "type": "uint256"
        }
      ],
      "stateMutability": "view",
      "type": "function"
    },
    {
      "inputs": [],
      "name": "target",
      "outputs": [
        {
          "internalType": "uint256",
          "name": "",
          "type": "uint256"
        }
      ],
      "stateMutability": "view",
      "type": "function"
    },
    {
      "inputs": [
        {
          "internalType": "uint256",
          "name": "",
          "type": "uint256"
        }
      ],
      "name": "victims",
      "outputs": [
        {
          "internalType": "address",
          "name": "",
          "type": "address"
        }
      ],
      "stateMutability": "view",
      "type": "function"
    },
    {
      "inputs": [
        {
          "internalType": "uint256",
          "name": "_donationAmount",
          "type": "uint256"
        }
      ],
      "name": "donateTokens",
      "outputs": [],
      "stateMutability": "nonpayable",
      "type": "function"
    },
    {
      "inputs": [],
      "name": "contractBalance",
      "outputs": [
        {
          "internalType": "uint256",
          "name": "",
          "type": "uint256"
        }
      ],
      "stateMutability": "view",
      "type": "function"
    },
    {
      "inputs": [],
      "name": "refundDonation",
      "outputs": [],
      "stateMutability": "nonpayable",
      "type": "function"
    },
    {
      "inputs": [],
      "name": "claimBeneficiary",
      "outputs": [],
      "stateMutability": "nonpayable",
      "type": "function"
    }
  ],
  "bytecode": "0x60806040523480156200001157600080fd5b5060405162001545380380620015458339818101604052810190620000379190620001f0565b80600b60006101000a81548173ffffffffffffffffffffffffffffffffffffffff021916908373ffffffffffffffffffffffffffffffffffffffff160217905550670de0b6b3a7640000856200008e9190620002a7565b6002819055508342620000a29190620002f2565b6004819055508242620000b69190620002f2565b6003819055506802b5e3af16b188000060058190555033600160006101000a81548173ffffffffffffffffffffffffffffffffffffffff021916908373ffffffffffffffffffffffffffffffffffffffff160217905550816008819055506008546002546200012691906200035c565b600981905550505050505062000394565b600080fd5b6000819050919050565b62000151816200013c565b81146200015d57600080fd5b50565b600081519050620001718162000146565b92915050565b600073ffffffffffffffffffffffffffffffffffffffff82169050919050565b6000620001a48262000177565b9050919050565b6000620001b88262000197565b9050919050565b620001ca81620001ab565b8114620001d657600080fd5b50565b600081519050620001ea81620001bf565b92915050565b600080600080600060a086880312156200020f576200020e62000137565b5b60006200021f8882890162000160565b9550506020620002328882890162000160565b9450506040620002458882890162000160565b9350506060620002588882890162000160565b92505060806200026b88828901620001d9565b9150509295509295909350565b7f4e487b7100000000000000000000000000000000000000000000000000000000600052601160045260246000fd5b6000620002b4826200013c565b9150620002c1836200013c565b9250828202620002d1816200013c565b91508282048414831517620002eb57620002ea62000278565b5b5092915050565b6000620002ff826200013c565b91506200030c836200013c565b925082820190508082111562000327576200032662000278565b5b92915050565b7f4e487b7100000000000000000000000000000000000000000000000000000000600052601260045260246000fd5b600062000369826200013c565b915062000376836200013c565b9250826200038957620003886200032d565b5b828204905092915050565b6111a180620003a46000396000f3fe608060405234801561001057600080fd5b50600436106101005760003560e01c806367b65c8c11610097578063ca0cdea811610066578063ca0cdea814610243578063d4b8399214610273578063dafee77d14610291578063dff42bc5146102c157610100565b806367b65c8c146101e15780638b7afe2e146101eb578063aaffadf314610209578063c31f23011461022757610100565b8063332f7acf116100d3578063332f7acf1461017d5780633c5456c91461019b5780634225bcbe146101b957806348d89b6b146101d757610100565b80630559400814610105578063076be0a0146101235780630b97bc861461014157806329dcb0cf1461015f575b600080fd5b61010d6102df565b60405161011a9190610ac9565b60405180910390f35b61012b6102e5565b6040516101389190610b25565b60405180910390f35b61014961030b565b6040516101569190610ac9565b60405180910390f35b610167610311565b6040516101749190610ac9565b60405180910390f35b610185610317565b6040516101929190610ac9565b60405180910390f35b6101a361031d565b6040516101b09190610b9f565b60405180910390f35b6101c1610343565b6040516101ce9190610ac9565b60405180910390f35b6101df610349565b005b6101e96105c7565b005b6101f36107c9565b6040516102009190610ac9565b60405180910390f35b6102116107d1565b60405161021e9190610ac9565b60405180910390f35b610241600480360381019061023c9190610beb565b6107d7565b005b61025d60048036038101906102589190610c44565b610a4d565b60405161026a9190610ac9565b60405180910390f35b61027b610a65565b6040516102889190610ac9565b60405180910390f35b6102ab60048036038101906102a69190610beb565b610a6b565b6040516102b89190610b25565b60405180910390f35b6102c9610aaa565b6040516102d69190610ac9565b60405180910390f35b60085481565b600160009054906101000a900473ffffffffffffffffffffffffffffffffffffffff1681565b60045481565b60035481565b60065481565b600b60009054906101000a900473ffffffffffffffffffffffffffffffffffffffff1681565b60095481565b4260035410801561035e575060025460065410155b61039d576040517f08c379a000000000000000000000000000000000000000000000000000000000815260040161039490610cce565b60405180910390fd5b60003390506000600190506000600a80549050905060005b8181101561044657600a81815481106103d1576103d0610cee565b5b9060005260206000200160009054906101000a900473ffffffffffffffffffffffffffffffffffffffff1673ffffffffffffffffffffffffffffffffffffffff168473ffffffffffffffffffffffffffffffffffffffff160361043357600092505b808061043e90610d4c565b9150506103b5565b5081610487576040517f08c379a000000000000000000000000000000000000000000000000000000000815260040161047e90610de0565b60405180910390fd5b600b60009054906101000a900473ffffffffffffffffffffffffffffffffffffffff1673ffffffffffffffffffffffffffffffffffffffff166323b872dd30856009546040518463ffffffff1660e01b81526004016104e893929190610e00565b6020604051808303816000875af1158015610507573d6000803e3d6000fd5b505050506040513d601f19601f8201168201806040525081019061052b9190610e6f565b50600a839080600181540180825580915050600190039060005260206000200160009091909190916101000a81548173ffffffffffffffffffffffffffffffffffffffff021916908373ffffffffffffffffffffffffffffffffffffffff160217905550600954600660008282546105a39190610e9c565b92505081905550600860008154809291906105bd90610ed0565b9190505550505050565b6002546006541061060d576040517f08c379a000000000000000000000000000000000000000000000000000000000815260040161060490610f6b565b60405180910390fd5b4260035410610651576040517f08c379a000000000000000000000000000000000000000000000000000000000815260040161064890610ffd565b60405180910390fd5b60008060003373ffffffffffffffffffffffffffffffffffffffff1673ffffffffffffffffffffffffffffffffffffffff168152602001908152602001600020541161069c57600080fd5b6000339050600b60009054906101000a900473ffffffffffffffffffffffffffffffffffffffff1673ffffffffffffffffffffffffffffffffffffffff166323b872dd30836000808673ffffffffffffffffffffffffffffffffffffffff1673ffffffffffffffffffffffffffffffffffffffff168152602001908152602001600020546040518463ffffffff1660e01b815260040161073e93929190610e00565b6020604051808303816000875af115801561075d573d6000803e3d6000fd5b505050506040513d601f19601f820116820180604052508101906107819190610e6f565b5060008060003373ffffffffffffffffffffffffffffffffffffffff1673ffffffffffffffffffffffffffffffffffffffff1681526020019081526020016000208190555050565b600047905090565b60055481565b60003390506000670de0b6b3a7640000836107f2919061101d565b90506004544210158015610807575060035442105b610846576040517f08c379a000000000000000000000000000000000000000000000000000000000815260040161083d906110ab565b60405180910390fd5b600554811161088a576040517f08c379a000000000000000000000000000000000000000000000000000000000815260040161088190611117565b60405180910390fd5b60008060008473ffffffffffffffffffffffffffffffffffffffff1673ffffffffffffffffffffffffffffffffffffffff16815260200190815260200160002054036108e957600760008154809291906108e390610d4c565b91905055505b600b60009054906101000a900473ffffffffffffffffffffffffffffffffffffffff1673ffffffffffffffffffffffffffffffffffffffff166323b872dd8330846040518463ffffffff1660e01b815260040161094893929190610e00565b6020604051808303816000875af1158015610967573d6000803e3d6000fd5b505050506040513d601f19601f8201168201806040525081019061098b9190610e6f565b50806000808473ffffffffffffffffffffffffffffffffffffffff1673ffffffffffffffffffffffffffffffffffffffff16815260200190815260200160002060008282546109da9190611137565b9250508190555080600660008282546109f39190611137565b925050819055508173ffffffffffffffffffffffffffffffffffffffff167f22682b30fa411bb81f550af7c3ee5878ae5aecfb5a591c42fcfe89dad670495382604051610a409190610ac9565b60405180910390a2505050565b60006020528060005260406000206000915090505481565b60025481565b600a8181548110610a7b57600080fd5b906000526020600020016000915054906101000a900473ffffffffffffffffffffffffffffffffffffffff1681565b60075481565b6000819050919050565b610ac381610ab0565b82525050565b6000602082019050610ade6000830184610aba565b92915050565b600073ffffffffffffffffffffffffffffffffffffffff82169050919050565b6000610b0f82610ae4565b9050919050565b610b1f81610b04565b82525050565b6000602082019050610b3a6000830184610b16565b92915050565b6000819050919050565b6000610b65610b60610b5b84610ae4565b610b40565b610ae4565b9050919050565b6000610b7782610b4a565b9050919050565b6000610b8982610b6c565b9050919050565b610b9981610b7e565b82525050565b6000602082019050610bb46000830184610b90565b92915050565b600080fd5b610bc881610ab0565b8114610bd357600080fd5b50565b600081359050610be581610bbf565b92915050565b600060208284031215610c0157610c00610bba565b5b6000610c0f84828501610bd6565b91505092915050565b610c2181610b04565b8114610c2c57600080fd5b50565b600081359050610c3e81610c18565b92915050565b600060208284031215610c5a57610c59610bba565b5b6000610c6884828501610c2f565b91505092915050565b600082825260208201905092915050565b7f43616e6e6f7420636c61696d2079657421210000000000000000000000000000600082015250565b6000610cb8601283610c71565b9150610cc382610c82565b602082019050919050565b60006020820190508181036000830152610ce781610cab565b9050919050565b7f4e487b7100000000000000000000000000000000000000000000000000000000600052603260045260246000fd5b7f4e487b7100000000000000000000000000000000000000000000000000000000600052601160045260246000fd5b6000610d5782610ab0565b91507fffffffffffffffffffffffffffffffffffffffffffffffffffffffffffffffff8203610d8957610d88610d1d565b5b600182019050919050565b7f416c726561647920436c61696d65640000000000000000000000000000000000600082015250565b6000610dca600f83610c71565b9150610dd582610d94565b602082019050919050565b60006020820190508181036000830152610df981610dbd565b9050919050565b6000606082019050610e156000830186610b16565b610e226020830185610b16565b610e2f6040830184610aba565b949350505050565b60008115159050919050565b610e4c81610e37565b8114610e5757600080fd5b50565b600081519050610e6981610e43565b92915050565b600060208284031215610e8557610e84610bba565b5b6000610e9384828501610e5a565b91505092915050565b6000610ea782610ab0565b9150610eb283610ab0565b9250828203905081811115610eca57610ec9610d1d565b5b92915050565b6000610edb82610ab0565b915060008203610eee57610eed610d1d565b5b600182039050919050565b7f54617267657420666f722070726f6a656374206d65742e43616e6e6f7420626560008201527f20726566756e6465642121000000000000000000000000000000000000000000602082015250565b6000610f55602b83610c71565b9150610f6082610ef9565b604082019050919050565b60006020820190508181036000830152610f8481610f48565b9050919050565b7f5761697420756e74696c20446f6e6174696f6e20706572696f64206973204f7660008201527f65722e0000000000000000000000000000000000000000000000000000000000602082015250565b6000610fe7602383610c71565b9150610ff282610f8b565b604082019050919050565b6000602082019050818103600083015261101681610fda565b9050919050565b600061102882610ab0565b915061103383610ab0565b925082820261104181610ab0565b9150828204841483151761105857611057610d1d565b5b5092915050565b7f446f6e6174696f6e206e6f7420616374697665207269676874206e6f77000000600082015250565b6000611095601d83610c71565b91506110a08261105f565b602082019050919050565b600060208201905081810360008301526110c481611088565b9050919050565b7f4d696e696d756d20616d6f756e74206e6f74206d657421000000000000000000600082015250565b6000611101601783610c71565b915061110c826110cb565b602082019050919050565b60006020820190508181036000830152611130816110f4565b9050919050565b600061114282610ab0565b915061114d83610ab0565b925082820190508082111561116557611164610d1d565b5b9291505056fea2646970667358221220cd7b947e082a3d180d2adbcf184509a178bd871c7ce640965bb5566b8c96557c64736f6c63430008120033",
  "immutableReferences": {},
  "source": "//SPDX-License-Identifier: GPL-0.3.0\r\n\r\npragma solidity ^0.8.0;\r\n\r\nimport \"./JiwanKoshToken.sol\";\r\n\r\ncontract donations {\r\n    mapping(address => uint256) public donors;\r\n    address public aidAgency;\r\n    uint256 public target;\r\n    uint256 public deadline;\r\n    uint256 public startDate;\r\n    uint256 public minContribution;\r\n    uint256 public amountCollected;\r\n    uint256 public noOfDonors;\r\n    uint256 public noOfBeneficiary;\r\n    uint256 public claimableFund;\r\n    address[] public victims;\r\n    JiwanKoshToken public JKT;\r\n\r\n    event donationLog(address indexed donor, uint256 donatedAmount);\r\n\r\n    constructor(\r\n        uint256 _target,\r\n        uint256 _startDate,\r\n        uint256 _deadline,\r\n        uint256 _noOfBeneficiary,\r\n        JiwanKoshToken _token\r\n    ) {\r\n        JKT = JiwanKoshToken(_token);\r\n        target = _target * (10**18);\r\n        startDate = block.timestamp + _startDate;\r\n        deadline = block.timestamp + _deadline;\r\n        minContribution = 50 * (10**18);\r\n        aidAgency = msg.sender;\r\n        noOfBeneficiary = _noOfBeneficiary;\r\n        claimableFund = target / noOfBeneficiary;\r\n    }\r\n\r\n    function donateTokens(uint256 _donationAmount) public {\r\n        address _donor = msg.sender;\r\n        uint256 donationAmount = _donationAmount * (10**18);\r\n        require(\r\n            block.timestamp >= startDate && block.timestamp < deadline,\r\n            \"Donation not active right now\"\r\n        );\r\n        require(donationAmount > minContribution, \"Minimum amount not met!\");\r\n\r\n        if (donors[_donor] == 0) {\r\n            noOfDonors++;\r\n        }\r\n        JKT.transferFrom(_donor, address(this), donationAmount);\r\n        donors[_donor] += donationAmount;\r\n        amountCollected += donationAmount;\r\n        emit donationLog(_donor, donationAmount);\r\n    }\r\n\r\n    function contractBalance() public view returns (uint256) {\r\n        return address(this).balance;\r\n    }\r\n\r\n    function refundDonation() public {\r\n        require(\r\n            amountCollected < target,\r\n            \"Target for project met.Cannot be refunded!!\"\r\n        ); //message is incase the require condition is not met\r\n        require(\r\n            deadline < block.timestamp,\r\n            \"Wait until Donation period is Over.\"\r\n        );\r\n        require(donors[msg.sender] > 0);\r\n        address _donor = (msg.sender);\r\n        JKT.transferFrom(address(this), _donor, donors[_donor]);\r\n        donors[msg.sender] = 0;\r\n    }\r\n\r\n    function claimBeneficiary() public {\r\n        require(\r\n            deadline < block.timestamp && amountCollected >= target,\r\n            \"Cannot claim yet!!\"\r\n        );\r\n        address claimer = msg.sender;\r\n        bool canClaim = true;\r\n        uint256 lengthOfArray = victims.length;\r\n        for (\r\n            uint256 i;\r\n            i < lengthOfArray;\r\n            i++ //this loop finds the beneficiary from array and then check if they have claimed or not\r\n        ) {\r\n            if (claimer == victims[i]) {\r\n                canClaim = false;\r\n            }\r\n        }\r\n        require(canClaim, \"Already Claimed\");\r\n        JKT.transferFrom(address(this), claimer, claimableFund);\r\n        victims.push(claimer);\r\n        amountCollected -= claimableFund;\r\n        noOfBeneficiary--;\r\n    }\r\n}\r\n",
  "sourcePath": "C:\\Users\\DELL\\Documents\\JIWAN_KOSH_PROJECT\\contracts\\donations.sol",
  "compiler": {
    "name": "solc",
    "version": "0.8.18+commit.87f61d96.Emscripten.clang"
  },
  "schemaVersion": "3.4.12",
  "updatedAt": "2023-03-09T16:59:00.935Z",
  "devdoc": {
    "kind": "dev",
    "methods": {},
    "version": 1
  },
  "userdoc": {
    "kind": "user",
    "methods": {},
    "version": 1
  }
}