{
  "contractName": "donations",
  "abi": [
    {
      "inputs": [
        {
          "internalType": "uint256",
          "name": "_target",
          "type": "uint256"
        },
        {
          "internalType": "uint256",
          "name": "_startDate",
          "type": "uint256"
        },
        {
          "internalType": "uint256",
          "name": "_deadline",
          "type": "uint256"
        },
        {
          "internalType": "uint256",
          "name": "_noOfBeneficiary",
          "type": "uint256"
        },
        {
          "internalType": "contract JiwanKoshToken",
          "name": "_token",
          "type": "address"
        }
      ],
      "stateMutability": "nonpayable",
      "type": "constructor"
    },
    {
      "anonymous": false,
      "inputs": [
        {
          "indexed": true,
          "internalType": "address",
          "name": "donor",
          "type": "address"
        },
        {
          "indexed": false,
          "internalType": "uint256",
          "name": "donatedAmount",
          "type": "uint256"
        }
      ],
      "name": "donationLog",
      "type": "event"
    },
    {
      "inputs": [],
      "name": "JKT",
      "outputs": [
        {
          "internalType": "contract JiwanKoshToken",
          "name": "",
          "type": "address"
        }
      ],
      "stateMutability": "view",
      "type": "function",
      "constant": true
    },
    {
      "inputs": [],
      "name": "aidAgency",
      "outputs": [
        {
          "internalType": "address",
          "name": "",
          "type": "address"
        }
      ],
      "stateMutability": "view",
      "type": "function",
      "constant": true
    },
    {
      "inputs": [],
      "name": "amountCollected",
      "outputs": [
        {
          "internalType": "uint256",
          "name": "",
          "type": "uint256"
        }
      ],
      "stateMutability": "view",
      "type": "function",
      "constant": true
    },
    {
      "inputs": [],
      "name": "claimableFund",
      "outputs": [
        {
          "internalType": "uint256",
          "name": "",
          "type": "uint256"
        }
      ],
      "stateMutability": "view",
      "type": "function",
      "constant": true
    },
    {
      "inputs": [],
      "name": "deadline",
      "outputs": [
        {
          "internalType": "uint256",
          "name": "",
          "type": "uint256"
        }
      ],
      "stateMutability": "view",
      "type": "function",
      "constant": true
    },
    {
      "inputs": [
        {
          "internalType": "address",
          "name": "",
          "type": "address"
        }
      ],
      "name": "donors",
      "outputs": [
        {
          "internalType": "uint256",
          "name": "",
          "type": "uint256"
        }
      ],
      "stateMutability": "view",
      "type": "function",
      "constant": true
    },
    {
      "inputs": [],
      "name": "minContribution",
      "outputs": [
        {
          "internalType": "uint256",
          "name": "",
          "type": "uint256"
        }
      ],
      "stateMutability": "view",
      "type": "function",
      "constant": true
    },
    {
      "inputs": [],
      "name": "noOfBeneficiary",
      "outputs": [
        {
          "internalType": "uint256",
          "name": "",
          "type": "uint256"
        }
      ],
      "stateMutability": "view",
      "type": "function",
      "constant": true
    },
    {
      "inputs": [],
      "name": "noOfDonors",
      "outputs": [
        {
          "internalType": "uint256",
          "name": "",
          "type": "uint256"
        }
      ],
      "stateMutability": "view",
      "type": "function",
      "constant": true
    },
    {
      "inputs": [],
      "name": "startDate",
      "outputs": [
        {
          "internalType": "uint256",
          "name": "",
          "type": "uint256"
        }
      ],
      "stateMutability": "view",
      "type": "function",
      "constant": true
    },
    {
      "inputs": [],
      "name": "target",
      "outputs": [
        {
          "internalType": "uint256",
          "name": "",
          "type": "uint256"
        }
      ],
      "stateMutability": "view",
      "type": "function",
      "constant": true
    },
    {
      "inputs": [
        {
          "internalType": "uint256",
          "name": "",
          "type": "uint256"
        }
      ],
      "name": "victims",
      "outputs": [
        {
          "internalType": "address",
          "name": "",
          "type": "address"
        }
      ],
      "stateMutability": "view",
      "type": "function",
      "constant": true
    },
    {
      "inputs": [
        {
          "internalType": "uint256",
          "name": "_donationAmount",
          "type": "uint256"
        }
      ],
      "name": "test",
      "outputs": [
        {
          "internalType": "address",
          "name": "",
          "type": "address"
        }
      ],
      "stateMutability": "nonpayable",
      "type": "function"
    },
    {
      "inputs": [
        {
          "internalType": "uint256",
          "name": "_donationAmount",
          "type": "uint256"
        }
      ],
      "name": "donateTokens",
      "outputs": [],
      "stateMutability": "nonpayable",
      "type": "function"
    },
    {
      "inputs": [],
      "name": "contractBalance",
      "outputs": [
        {
          "internalType": "uint256",
          "name": "",
          "type": "uint256"
        }
      ],
      "stateMutability": "view",
      "type": "function",
      "constant": true
    },
    {
      "inputs": [],
      "name": "refundDonation",
      "outputs": [],
      "stateMutability": "nonpayable",
      "type": "function"
    },
    {
      "inputs": [],
      "name": "claimBeneficiary",
      "outputs": [],
      "stateMutability": "nonpayable",
      "type": "function"
    }
  ],
  "bytecode": "0x60806040523480156200001157600080fd5b506040516200132d3803806200132d8339818101604052810190620000379190620001f0565b80600b60006101000a81548173ffffffffffffffffffffffffffffffffffffffff021916908373ffffffffffffffffffffffffffffffffffffffff160217905550670de0b6b3a7640000856200008e9190620002a7565b6002819055508342620000a29190620002f2565b6004819055508242620000b69190620002f2565b6003819055506802b5e3af16b188000060058190555033600160006101000a81548173ffffffffffffffffffffffffffffffffffffffff021916908373ffffffffffffffffffffffffffffffffffffffff160217905550816008819055506008546002546200012691906200035c565b600981905550505050505062000394565b600080fd5b6000819050919050565b62000151816200013c565b81146200015d57600080fd5b50565b600081519050620001718162000146565b92915050565b600073ffffffffffffffffffffffffffffffffffffffff82169050919050565b6000620001a48262000177565b9050919050565b6000620001b88262000197565b9050919050565b620001ca81620001ab565b8114620001d657600080fd5b50565b600081519050620001ea81620001bf565b92915050565b600080600080600060a086880312156200020f576200020e62000137565b5b60006200021f8882890162000160565b9550506020620002328882890162000160565b9450506040620002458882890162000160565b9350506060620002588882890162000160565b92505060806200026b88828901620001d9565b9150509295509295909350565b7f4e487b7100000000000000000000000000000000000000000000000000000000600052601160045260246000fd5b6000620002b4826200013c565b9150620002c1836200013c565b9250828202620002d1816200013c565b91508282048414831517620002eb57620002ea62000278565b5b5092915050565b6000620002ff826200013c565b91506200030c836200013c565b925082820190508082111562000327576200032662000278565b5b92915050565b7f4e487b7100000000000000000000000000000000000000000000000000000000600052601260045260246000fd5b600062000369826200013c565b915062000376836200013c565b9250826200038957620003886200032d565b5b828204905092915050565b610f8980620003a46000396000f3fe608060405234801561001057600080fd5b506004361061010b5760003560e01c806348d89b6b116100a2578063c31f230111610071578063c31f230114610262578063ca0cdea81461027e578063d4b83992146102ae578063dafee77d146102cc578063dff42bc5146102fc5761010b565b806348d89b6b1461021257806367b65c8c1461021c5780638b7afe2e14610226578063aaffadf3146102445761010b565b806329e99f07116100de57806329e99f0714610188578063332f7acf146101b85780633c5456c9146101d65780634225bcbe146101f45761010b565b80630559400814610110578063076be0a01461012e5780630b97bc861461014c57806329dcb0cf1461016a575b600080fd5b61011861031a565b60405161012591906109ec565b60405180910390f35b610136610320565b6040516101439190610a48565b60405180910390f35b610154610346565b60405161016191906109ec565b60405180910390f35b61017261034c565b60405161017f91906109ec565b60405180910390f35b6101a2600480360381019061019d9190610a94565b610352565b6040516101af9190610a48565b60405180910390f35b6101c0610368565b6040516101cd91906109ec565b60405180910390f35b6101de61036e565b6040516101eb9190610b20565b60405180910390f35b6101fc610394565b60405161020991906109ec565b60405180910390f35b61021a61039a565b005b6102246104ea565b005b61022e6106ec565b60405161023b91906109ec565b60405180910390f35b61024c6106f4565b60405161025991906109ec565b60405180910390f35b61027c60048036038101906102779190610a94565b6106fa565b005b61029860048036038101906102939190610b67565b610970565b6040516102a591906109ec565b60405180910390f35b6102b6610988565b6040516102c391906109ec565b60405180910390f35b6102e660048036038101906102e19190610a94565b61098e565b6040516102f39190610a48565b60405180910390f35b6103046109cd565b60405161031191906109ec565b60405180910390f35b60085481565b600160009054906101000a900473ffffffffffffffffffffffffffffffffffffffff1681565b60045481565b60035481565b6000803390508260098190555080915050919050565b60065481565b600b60009054906101000a900473ffffffffffffffffffffffffffffffffffffffff1681565b60095481565b6000339050600b60009054906101000a900473ffffffffffffffffffffffffffffffffffffffff1673ffffffffffffffffffffffffffffffffffffffff1663095ea7b3826009546040518363ffffffff1660e01b81526004016103fe929190610b94565b6020604051808303816000875af115801561041d573d6000803e3d6000fd5b505050506040513d601f19601f820116820180604052508101906104419190610bf5565b50600b60009054906101000a900473ffffffffffffffffffffffffffffffffffffffff1673ffffffffffffffffffffffffffffffffffffffff166323b872dd30836009546040518463ffffffff1660e01b81526004016104a393929190610c22565b6020604051808303816000875af11580156104c2573d6000803e3d6000fd5b505050506040513d601f19601f820116820180604052508101906104e69190610bf5565b5050565b60025460065410610530576040517f08c379a000000000000000000000000000000000000000000000000000000000815260040161052790610cdc565b60405180910390fd5b4260035410610574576040517f08c379a000000000000000000000000000000000000000000000000000000000815260040161056b90610d6e565b60405180910390fd5b60008060003373ffffffffffffffffffffffffffffffffffffffff1673ffffffffffffffffffffffffffffffffffffffff16815260200190815260200160002054116105bf57600080fd5b6000339050600b60009054906101000a900473ffffffffffffffffffffffffffffffffffffffff1673ffffffffffffffffffffffffffffffffffffffff166323b872dd30836000808673ffffffffffffffffffffffffffffffffffffffff1673ffffffffffffffffffffffffffffffffffffffff168152602001908152602001600020546040518463ffffffff1660e01b815260040161066193929190610c22565b6020604051808303816000875af1158015610680573d6000803e3d6000fd5b505050506040513d601f19601f820116820180604052508101906106a49190610bf5565b5060008060003373ffffffffffffffffffffffffffffffffffffffff1673ffffffffffffffffffffffffffffffffffffffff1681526020019081526020016000208190555050565b600047905090565b60055481565b60003390506000670de0b6b3a7640000836107159190610dbd565b9050600454421015801561072a575060035442105b610769576040517f08c379a000000000000000000000000000000000000000000000000000000000815260040161076090610e4b565b60405180910390fd5b60055481116107ad576040517f08c379a00000000000000000000000000000000000000000000000000000000081526004016107a490610eb7565b60405180910390fd5b60008060008473ffffffffffffffffffffffffffffffffffffffff1673ffffffffffffffffffffffffffffffffffffffff168152602001908152602001600020540361080c576007600081548092919061080690610ed7565b91905055505b600b60009054906101000a900473ffffffffffffffffffffffffffffffffffffffff1673ffffffffffffffffffffffffffffffffffffffff166323b872dd8330846040518463ffffffff1660e01b815260040161086b93929190610c22565b6020604051808303816000875af115801561088a573d6000803e3d6000fd5b505050506040513d601f19601f820116820180604052508101906108ae9190610bf5565b50806000808473ffffffffffffffffffffffffffffffffffffffff1673ffffffffffffffffffffffffffffffffffffffff16815260200190815260200160002060008282546108fd9190610f1f565b9250508190555080600660008282546109169190610f1f565b925050819055508173ffffffffffffffffffffffffffffffffffffffff167f22682b30fa411bb81f550af7c3ee5878ae5aecfb5a591c42fcfe89dad67049538260405161096391906109ec565b60405180910390a2505050565b60006020528060005260406000206000915090505481565b60025481565b600a818154811061099e57600080fd5b906000526020600020016000915054906101000a900473ffffffffffffffffffffffffffffffffffffffff1681565b60075481565b6000819050919050565b6109e6816109d3565b82525050565b6000602082019050610a0160008301846109dd565b92915050565b600073ffffffffffffffffffffffffffffffffffffffff82169050919050565b6000610a3282610a07565b9050919050565b610a4281610a27565b82525050565b6000602082019050610a5d6000830184610a39565b92915050565b600080fd5b610a71816109d3565b8114610a7c57600080fd5b50565b600081359050610a8e81610a68565b92915050565b600060208284031215610aaa57610aa9610a63565b5b6000610ab884828501610a7f565b91505092915050565b6000819050919050565b6000610ae6610ae1610adc84610a07565b610ac1565b610a07565b9050919050565b6000610af882610acb565b9050919050565b6000610b0a82610aed565b9050919050565b610b1a81610aff565b82525050565b6000602082019050610b356000830184610b11565b92915050565b610b4481610a27565b8114610b4f57600080fd5b50565b600081359050610b6181610b3b565b92915050565b600060208284031215610b7d57610b7c610a63565b5b6000610b8b84828501610b52565b91505092915050565b6000604082019050610ba96000830185610a39565b610bb660208301846109dd565b9392505050565b60008115159050919050565b610bd281610bbd565b8114610bdd57600080fd5b50565b600081519050610bef81610bc9565b92915050565b600060208284031215610c0b57610c0a610a63565b5b6000610c1984828501610be0565b91505092915050565b6000606082019050610c376000830186610a39565b610c446020830185610a39565b610c5160408301846109dd565b949350505050565b600082825260208201905092915050565b7f54617267657420666f722070726f6a656374206d65742e43616e6e6f7420626560008201527f20726566756e6465642121000000000000000000000000000000000000000000602082015250565b6000610cc6602b83610c59565b9150610cd182610c6a565b604082019050919050565b60006020820190508181036000830152610cf581610cb9565b9050919050565b7f5761697420756e74696c20446f6e6174696f6e20706572696f64206973204f7660008201527f65722e0000000000000000000000000000000000000000000000000000000000602082015250565b6000610d58602383610c59565b9150610d6382610cfc565b604082019050919050565b60006020820190508181036000830152610d8781610d4b565b9050919050565b7f4e487b7100000000000000000000000000000000000000000000000000000000600052601160045260246000fd5b6000610dc8826109d3565b9150610dd3836109d3565b9250828202610de1816109d3565b91508282048414831517610df857610df7610d8e565b5b5092915050565b7f446f6e6174696f6e206e6f7420616374697665207269676874206e6f77000000600082015250565b6000610e35601d83610c59565b9150610e4082610dff565b602082019050919050565b60006020820190508181036000830152610e6481610e28565b9050919050565b7f4d696e696d756d20616d6f756e74206e6f74206d657421000000000000000000600082015250565b6000610ea1601783610c59565b9150610eac82610e6b565b602082019050919050565b60006020820190508181036000830152610ed081610e94565b9050919050565b6000610ee2826109d3565b91507fffffffffffffffffffffffffffffffffffffffffffffffffffffffffffffffff8203610f1457610f13610d8e565b5b600182019050919050565b6000610f2a826109d3565b9150610f35836109d3565b9250828201905080821115610f4d57610f4c610d8e565b5b9291505056fea264697066735822122050c81e1601b0f472f8ac989a718da60ec4214b012d713c21c966b82937032acd64736f6c63430008120033",
  "immutableReferences": {},
  "source": "//SPDX-License-Identifier: GPL-0.3.0\r\n\r\npragma solidity ^0.8.0;\r\n\r\nimport \"./JiwanKoshToken.sol\";\r\n\r\ncontract donations {\r\n    mapping(address => uint256) public donors;\r\n    address public aidAgency;\r\n    uint256 public target;\r\n    uint256 public deadline;\r\n    uint256 public startDate;\r\n    uint256 public minContribution;\r\n    uint256 public amountCollected;\r\n    uint256 public noOfDonors;\r\n    uint256 public noOfBeneficiary;\r\n    uint256 public claimableFund;\r\n    address[] public victims;\r\n    JiwanKoshToken public JKT;\r\n\r\n    event donationLog(address indexed donor, uint256 donatedAmount);\r\n\r\n    constructor(\r\n        uint256 _target,\r\n        uint256 _startDate,\r\n        uint256 _deadline,\r\n        uint256 _noOfBeneficiary,\r\n        JiwanKoshToken _token\r\n    ) {\r\n        JKT = _token;\r\n        target = _target * (10 ** 18);\r\n        startDate = block.timestamp + _startDate;\r\n        deadline = block.timestamp + _deadline;\r\n        minContribution = 50 * (10 ** 18);\r\n        aidAgency = msg.sender;\r\n        noOfBeneficiary = _noOfBeneficiary;\r\n        claimableFund = target / noOfBeneficiary;\r\n    }\r\n\r\n    function test(uint256 _donationAmount) public returns (address) {\r\n        address _donor = msg.sender;\r\n        claimableFund = _donationAmount;\r\n        return _donor;\r\n    }\r\n\r\n    function donateTokens(uint256 _donationAmount) public {\r\n        address _donor = msg.sender;\r\n        uint256 donationAmount = _donationAmount * (10 ** 18);\r\n        require(\r\n            block.timestamp >= startDate && block.timestamp < deadline,\r\n            \"Donation not active right now\"\r\n        );\r\n        require(donationAmount > minContribution, \"Minimum amount not met!\");\r\n\r\n        if (donors[_donor] == 0) {\r\n            noOfDonors++;\r\n        }\r\n        // JKT.approve(address(this), donationAmount);\r\n        JKT.transferFrom(_donor, address(this), donationAmount);\r\n        donors[_donor] += donationAmount;\r\n        amountCollected += donationAmount;\r\n        emit donationLog(_donor, donationAmount);\r\n    }\r\n\r\n    function contractBalance() public view returns (uint256) {\r\n        return address(this).balance;\r\n    }\r\n\r\n    function refundDonation() public {\r\n        require(\r\n            amountCollected < target,\r\n            \"Target for project met.Cannot be refunded!!\"\r\n        ); //message is incase the require condition is not met\r\n        require(\r\n            deadline < block.timestamp,\r\n            \"Wait until Donation period is Over.\"\r\n        );\r\n        require(donors[msg.sender] > 0);\r\n        address _donor = (msg.sender);\r\n        JKT.transferFrom(address(this), _donor, donors[_donor]);\r\n        donors[msg.sender] = 0;\r\n    }\r\n\r\n    function claimBeneficiary() public {\r\n        address claimer = msg.sender;\r\n        JKT.approve(claimer, claimableFund);\r\n        // require(\r\n        //     deadline < block.timestamp && amountCollected >= target,\r\n        //     \"Cannot claim yet!!\"\r\n        // );\r\n        // bool canClaim = true;\r\n        // uint256 lengthOfArray = victims.length;\r\n        // for (\r\n        //     uint256 i;\r\n        //     i < lengthOfArray;\r\n        //     i++ //this loop finds the beneficiary from array and then check if they have claimed or not\r\n        // ) {\r\n        //     if (claimer == victims[i]) {\r\n        //         canClaim = false;\r\n        //     }\r\n        // }\r\n        // require(canClaim, \"Already Claimed\");\r\n        JKT.transferFrom(address(this), claimer, claimableFund);\r\n        // victims.push(claimer);\r\n        // amountCollected -= claimableFund;\r\n        // noOfBeneficiary--;\r\n    }\r\n}\r\n",
  "sourcePath": "C:\\Users\\DELL\\Documents\\JIWAN_KOSH_PROJECT\\contracts\\donations.sol",
  "compiler": {
    "name": "solc",
    "version": "0.8.18+commit.87f61d96.Emscripten.clang"
  },
  "schemaVersion": "3.4.12",
  "updatedAt": "2023-04-21T13:08:50.980Z",
  "networkType": "ethereum",
  "devdoc": {
    "kind": "dev",
    "methods": {},
    "version": 1
  },
  "userdoc": {
    "kind": "user",
    "methods": {},
    "version": 1
  }
}