{
  "contractName": "exchange",
  "abi": [
    {
      "inputs": [],
      "stateMutability": "nonpayable",
      "type": "constructor"
    },
    {
      "anonymous": false,
      "inputs": [
        {
          "indexed": true,
          "internalType": "address",
          "name": "_from",
          "type": "address"
        },
        {
          "indexed": true,
          "internalType": "address",
          "name": "_to",
          "type": "address"
        },
        {
          "indexed": false,
          "internalType": "uint256",
          "name": "noOfToken",
          "type": "uint256"
        }
      ],
      "name": "tokenTransfer",
      "type": "event"
    },
    {
      "inputs": [],
      "name": "JKT",
      "outputs": [
        {
          "internalType": "contract JiwanKoshToken",
          "name": "",
          "type": "address"
        }
      ],
      "stateMutability": "view",
      "type": "function"
    },
    {
      "inputs": [
        {
          "internalType": "uint256",
          "name": "_requestedAmount",
          "type": "uint256"
        }
      ],
      "name": "requestTokens",
      "outputs": [],
      "stateMutability": "nonpayable",
      "type": "function"
    },
    {
      "inputs": [
        {
          "internalType": "uint256",
          "name": "_amount",
          "type": "uint256"
        }
      ],
      "name": "allocateToken",
      "outputs": [],
      "stateMutability": "nonpayable",
      "type": "function"
    },
    {
      "inputs": [
        {
          "internalType": "address",
          "name": "_sender",
          "type": "address"
        },
        {
          "internalType": "address",
          "name": "_receiver",
          "type": "address"
        },
        {
          "internalType": "uint256",
          "name": "transferAmount",
          "type": "uint256"
        }
      ],
      "name": "tokenExchange",
      "outputs": [],
      "stateMutability": "nonpayable",
      "type": "function"
    }
  ],
  "bytecode": "0x608060405234801561001057600080fd5b5033600160006101000a81548173ffffffffffffffffffffffffffffffffffffffff021916908373ffffffffffffffffffffffffffffffffffffffff160217905550610966806100616000396000f3fe608060405234801561001057600080fd5b506004361061004c5760003560e01c80633c5456c9146100515780634af2b27e1461006f578063ca36a3071461008b578063eef9c27c146100a7575b600080fd5b6100596100c3565b60405161006691906105db565b60405180910390f35b6100896004803603810190610084919061066f565b6100e7565b005b6100a560048036038101906100a091906106c2565b6101f2565b005b6100c160048036038101906100bc91906106c2565b610511565b005b60008054906101000a900473ffffffffffffffffffffffffffffffffffffffff1681565b60008054906101000a900473ffffffffffffffffffffffffffffffffffffffff1673ffffffffffffffffffffffffffffffffffffffff166323b872dd8484846040518463ffffffff1660e01b81526004016101449392919061070d565b6020604051808303816000875af1158015610163573d6000803e3d6000fd5b505050506040513d601f19601f82011682018060405250810190610187919061077c565b508173ffffffffffffffffffffffffffffffffffffffff168373ffffffffffffffffffffffffffffffffffffffff167f15eaef6b52cca0422fcfd03599b7a19d583624be50c7516f29664df698613aad836040516101e591906107a9565b60405180910390a3505050565b3373ffffffffffffffffffffffffffffffffffffffff16600160009054906101000a900473ffffffffffffffffffffffffffffffffffffffff1673ffffffffffffffffffffffffffffffffffffffff1614610282576040517f08c379a000000000000000000000000000000000000000000000000000000000815260040161027990610847565b60405180910390fd5b8060008054906101000a900473ffffffffffffffffffffffffffffffffffffffff1673ffffffffffffffffffffffffffffffffffffffff166370a08231600160009054906101000a900473ffffffffffffffffffffffffffffffffffffffff166040518263ffffffff1660e01b81526004016102fe9190610867565b602060405180830381865afa15801561031b573d6000803e3d6000fd5b505050506040513d601f19601f8201168201806040525081019061033f9190610897565b1015610380576040517f08c379a000000000000000000000000000000000000000000000000000000000815260040161037790610910565b60405180910390fd5b60008054906101000a900473ffffffffffffffffffffffffffffffffffffffff1673ffffffffffffffffffffffffffffffffffffffff166323b872dd600160009054906101000a900473ffffffffffffffffffffffffffffffffffffffff16600260009054906101000a900473ffffffffffffffffffffffffffffffffffffffff16846040518463ffffffff1660e01b81526004016104219392919061070d565b6020604051808303816000875af1158015610440573d6000803e3d6000fd5b505050506040513d601f19601f82011682018060405250810190610464919061077c565b50600260009054906101000a900473ffffffffffffffffffffffffffffffffffffffff1673ffffffffffffffffffffffffffffffffffffffff16600160009054906101000a900473ffffffffffffffffffffffffffffffffffffffff1673ffffffffffffffffffffffffffffffffffffffff167f15eaef6b52cca0422fcfd03599b7a19d583624be50c7516f29664df698613aad8360405161050691906107a9565b60405180910390a350565b33600260006101000a81548173ffffffffffffffffffffffffffffffffffffffff021916908373ffffffffffffffffffffffffffffffffffffffff1602179055508060038190555050565b600073ffffffffffffffffffffffffffffffffffffffff82169050919050565b6000819050919050565b60006105a161059c6105978461055c565b61057c565b61055c565b9050919050565b60006105b382610586565b9050919050565b60006105c5826105a8565b9050919050565b6105d5816105ba565b82525050565b60006020820190506105f060008301846105cc565b92915050565b600080fd5b60006106068261055c565b9050919050565b610616816105fb565b811461062157600080fd5b50565b6000813590506106338161060d565b92915050565b6000819050919050565b61064c81610639565b811461065757600080fd5b50565b60008135905061066981610643565b92915050565b600080600060608486031215610688576106876105f6565b5b600061069686828701610624565b93505060206106a786828701610624565b92505060406106b88682870161065a565b9150509250925092565b6000602082840312156106d8576106d76105f6565b5b60006106e68482850161065a565b91505092915050565b6106f8816105fb565b82525050565b61070781610639565b82525050565b600060608201905061072260008301866106ef565b61072f60208301856106ef565b61073c60408301846106fe565b949350505050565b60008115159050919050565b61075981610744565b811461076457600080fd5b50565b60008151905061077681610750565b92915050565b600060208284031215610792576107916105f6565b5b60006107a084828501610767565b91505092915050565b60006020820190506107be60008301846106fe565b92915050565b600082825260208201905092915050565b7f4f6e6c79207468652073757065722061646d696e2063616e2063616c6c20746860008201527f69732066756e6374696f6e000000000000000000000000000000000000000000602082015250565b6000610831602b836107c4565b915061083c826107d5565b604082019050919050565b6000602082019050818103600083015261086081610824565b9050919050565b600060208201905061087c60008301846106ef565b92915050565b60008151905061089181610643565b92915050565b6000602082840312156108ad576108ac6105f6565b5b60006108bb84828501610882565b91505092915050565b7f4e6f2073756666696369656e742042616c616e63650000000000000000000000600082015250565b60006108fa6015836107c4565b9150610905826108c4565b602082019050919050565b60006020820190508181036000830152610929816108ed565b905091905056fea264697066735822122019aeebfe8dbe5606341931775b484759269c1e892f6a780ca25c8b0c56ae159a64736f6c63430008120033",
  "immutableReferences": {},
  "source": "// SPDX-License-Identifier: MIT\r\npragma solidity ^0.8.17;\r\n\r\nimport \"./JiwanKoshToken.sol\";\r\nimport \"./donations.sol\";\r\n\r\ncontract exchange\r\n{\r\n    JiwanKoshToken public JKT;\r\n    address owner;\r\n    address tokenRequestSender;\r\n    uint requestedAmount;\r\n    event tokenTransfer(address indexed _from,address indexed _to, uint noOfToken);\r\n\r\n    constructor()\r\n    {\r\n        owner=msg.sender;\r\n    }\r\n    function requestTokens(uint _requestedAmount) public\r\n    {\r\n        tokenRequestSender=msg.sender;\r\n        requestedAmount=_requestedAmount;\r\n    }\r\n    function allocateToken(uint _amount) public onlyOwner\r\n    {\r\n        require(JKT.balanceOf(owner)>=_amount,\"No sufficient Balance\");\r\n        JKT.transferFrom(owner,tokenRequestSender,_amount);\r\n        emit tokenTransfer(owner,tokenRequestSender,_amount);\r\n    }\r\n    modifier onlyOwner()\r\n    {\r\n        require(owner==msg.sender,\"Only the super admin can call this function\");\r\n        _;\r\n    }\r\n    function tokenExchange(address _sender,address _receiver, uint transferAmount) public\r\n    {\r\n        JKT.transferFrom(_sender,_receiver,transferAmount);\r\n        emit tokenTransfer(_sender,_receiver,transferAmount);\r\n    }\r\n}\r\n",
  "sourcePath": "C:\\Users\\DELL\\Documents\\JIWAN_KOSH_PROJECT\\contracts\\exchange.sol",
  "compiler": {
    "name": "solc",
    "version": "0.8.18+commit.87f61d96.Emscripten.clang"
  },
  "schemaVersion": "3.4.12",
  "updatedAt": "2023-03-09T16:59:00.942Z",
  "devdoc": {
    "kind": "dev",
    "methods": {},
    "version": 1
  },
  "userdoc": {
    "kind": "user",
    "methods": {},
    "version": 1
  }
}