{
  "contractName": "FundRaising",
  "abi": [
    {
      "inputs": [
        {
          "internalType": "contract JiwanKoshToken",
          "name": "_JKT",
          "type": "address"
        },
        {
          "internalType": "address",
          "name": "_admin",
          "type": "address"
        }
      ],
      "stateMutability": "nonpayable",
      "type": "constructor"
    },
    {
      "anonymous": false,
      "inputs": [
        {
          "indexed": false,
          "internalType": "uint256",
          "name": "id",
          "type": "uint256"
        }
      ],
      "name": "Cancel",
      "type": "event"
    },
    {
      "anonymous": false,
      "inputs": [
        {
          "indexed": false,
          "internalType": "uint256",
          "name": "id",
          "type": "uint256"
        },
        {
          "indexed": false,
          "internalType": "uint256",
          "name": "projectId",
          "type": "uint256"
        }
      ],
      "name": "Claim",
      "type": "event"
    },
    {
      "anonymous": false,
      "inputs": [
        {
          "indexed": false,
          "internalType": "uint256",
          "name": "id",
          "type": "uint256"
        },
        {
          "indexed": false,
          "internalType": "uint256",
          "name": "projectId",
          "type": "uint256"
        },
        {
          "indexed": false,
          "internalType": "string",
          "name": "aidAgency",
          "type": "string"
        },
        {
          "indexed": false,
          "internalType": "uint256",
          "name": "goal",
          "type": "uint256"
        },
        {
          "indexed": false,
          "internalType": "uint32",
          "name": "startAt",
          "type": "uint32"
        },
        {
          "indexed": false,
          "internalType": "uint32",
          "name": "endAt",
          "type": "uint32"
        }
      ],
      "name": "Create",
      "type": "event"
    },
    {
      "anonymous": false,
      "inputs": [
        {
          "indexed": true,
          "internalType": "uint256",
          "name": "id",
          "type": "uint256"
        },
        {
          "indexed": true,
          "internalType": "address",
          "name": "caller",
          "type": "address"
        },
        {
          "indexed": false,
          "internalType": "uint256",
          "name": "amount",
          "type": "uint256"
        }
      ],
      "name": "Donate",
      "type": "event"
    },
    {
      "anonymous": false,
      "inputs": [
        {
          "indexed": true,
          "internalType": "bytes32",
          "name": "role",
          "type": "bytes32"
        },
        {
          "indexed": true,
          "internalType": "bytes32",
          "name": "previousAdminRole",
          "type": "bytes32"
        },
        {
          "indexed": true,
          "internalType": "bytes32",
          "name": "newAdminRole",
          "type": "bytes32"
        }
      ],
      "name": "RoleAdminChanged",
      "type": "event"
    },
    {
      "anonymous": false,
      "inputs": [
        {
          "indexed": true,
          "internalType": "bytes32",
          "name": "role",
          "type": "bytes32"
        },
        {
          "indexed": true,
          "internalType": "address",
          "name": "account",
          "type": "address"
        },
        {
          "indexed": true,
          "internalType": "address",
          "name": "sender",
          "type": "address"
        }
      ],
      "name": "RoleGranted",
      "type": "event"
    },
    {
      "anonymous": false,
      "inputs": [
        {
          "indexed": true,
          "internalType": "bytes32",
          "name": "role",
          "type": "bytes32"
        },
        {
          "indexed": true,
          "internalType": "address",
          "name": "account",
          "type": "address"
        },
        {
          "indexed": true,
          "internalType": "address",
          "name": "sender",
          "type": "address"
        }
      ],
      "name": "RoleRevoked",
      "type": "event"
    },
    {
      "inputs": [],
      "name": "DEFAULT_ADMIN_ROLE",
      "outputs": [
        {
          "internalType": "bytes32",
          "name": "",
          "type": "bytes32"
        }
      ],
      "stateMutability": "view",
      "type": "function"
    },
    {
      "inputs": [],
      "name": "JKT",
      "outputs": [
        {
          "internalType": "contract JiwanKoshToken",
          "name": "",
          "type": "address"
        }
      ],
      "stateMutability": "view",
      "type": "function"
    },
    {
      "inputs": [],
      "name": "count",
      "outputs": [
        {
          "internalType": "uint256",
          "name": "",
          "type": "uint256"
        }
      ],
      "stateMutability": "view",
      "type": "function"
    },
    {
      "inputs": [
        {
          "internalType": "uint256",
          "name": "",
          "type": "uint256"
        },
        {
          "internalType": "address",
          "name": "",
          "type": "address"
        }
      ],
      "name": "donatedAmount",
      "outputs": [
        {
          "internalType": "uint256",
          "name": "",
          "type": "uint256"
        }
      ],
      "stateMutability": "view",
      "type": "function"
    },
    {
      "inputs": [
        {
          "internalType": "bytes32",
          "name": "role",
          "type": "bytes32"
        }
      ],
      "name": "getRoleAdmin",
      "outputs": [
        {
          "internalType": "bytes32",
          "name": "",
          "type": "bytes32"
        }
      ],
      "stateMutability": "view",
      "type": "function"
    },
    {
      "inputs": [
        {
          "internalType": "bytes32",
          "name": "role",
          "type": "bytes32"
        },
        {
          "internalType": "address",
          "name": "account",
          "type": "address"
        }
      ],
      "name": "grantRole",
      "outputs": [],
      "stateMutability": "nonpayable",
      "type": "function"
    },
    {
      "inputs": [
        {
          "internalType": "bytes32",
          "name": "role",
          "type": "bytes32"
        },
        {
          "internalType": "address",
          "name": "account",
          "type": "address"
        }
      ],
      "name": "hasRole",
      "outputs": [
        {
          "internalType": "bool",
          "name": "",
          "type": "bool"
        }
      ],
      "stateMutability": "view",
      "type": "function"
    },
    {
      "inputs": [
        {
          "internalType": "uint256",
          "name": "",
          "type": "uint256"
        }
      ],
      "name": "raiseFunds",
      "outputs": [
        {
          "internalType": "uint256",
          "name": "projectId",
          "type": "uint256"
        },
        {
          "internalType": "string",
          "name": "aidAgency",
          "type": "string"
        },
        {
          "internalType": "uint256",
          "name": "goal",
          "type": "uint256"
        },
        {
          "internalType": "uint256",
          "name": "donated",
          "type": "uint256"
        },
        {
          "internalType": "uint32",
          "name": "startAt",
          "type": "uint32"
        },
        {
          "internalType": "uint32",
          "name": "endAt",
          "type": "uint32"
        },
        {
          "internalType": "bool",
          "name": "claimed",
          "type": "bool"
        },
        {
          "internalType": "bool",
          "name": "canceled",
          "type": "bool"
        }
      ],
      "stateMutability": "view",
      "type": "function"
    },
    {
      "inputs": [
        {
          "internalType": "bytes32",
          "name": "role",
          "type": "bytes32"
        },
        {
          "internalType": "address",
          "name": "account",
          "type": "address"
        }
      ],
      "name": "renounceRole",
      "outputs": [],
      "stateMutability": "nonpayable",
      "type": "function"
    },
    {
      "inputs": [
        {
          "internalType": "bytes32",
          "name": "role",
          "type": "bytes32"
        },
        {
          "internalType": "address",
          "name": "account",
          "type": "address"
        }
      ],
      "name": "revokeRole",
      "outputs": [],
      "stateMutability": "nonpayable",
      "type": "function"
    },
    {
      "inputs": [
        {
          "internalType": "bytes4",
          "name": "interfaceId",
          "type": "bytes4"
        }
      ],
      "name": "supportsInterface",
      "outputs": [
        {
          "internalType": "bool",
          "name": "",
          "type": "bool"
        }
      ],
      "stateMutability": "view",
      "type": "function"
    },
    {
      "inputs": [
        {
          "internalType": "uint256",
          "name": "_projectId",
          "type": "uint256"
        },
        {
          "internalType": "string",
          "name": "_aidAgency",
          "type": "string"
        },
        {
          "internalType": "uint256",
          "name": "_goal",
          "type": "uint256"
        },
        {
          "internalType": "uint32",
          "name": "_startAt",
          "type": "uint32"
        },
        {
          "internalType": "uint32",
          "name": "_endAt",
          "type": "uint32"
        }
      ],
      "name": "createFundRaise",
      "outputs": [],
      "stateMutability": "nonpayable",
      "type": "function"
    },
    {
      "inputs": [
        {
          "internalType": "uint256",
          "name": "_id",
          "type": "uint256"
        }
      ],
      "name": "cancel",
      "outputs": [],
      "stateMutability": "nonpayable",
      "type": "function"
    },
    {
      "inputs": [
        {
          "internalType": "uint256",
          "name": "_id",
          "type": "uint256"
        },
        {
          "internalType": "uint256",
          "name": "_amount",
          "type": "uint256"
        }
      ],
      "name": "donate",
      "outputs": [],
      "stateMutability": "nonpayable",
      "type": "function"
    },
    {
      "inputs": [
        {
          "internalType": "uint256",
          "name": "_id",
          "type": "uint256"
        },
        {
          "internalType": "uint256",
          "name": "_projectId",
          "type": "uint256"
        }
      ],
      "name": "claim",
      "outputs": [],
      "stateMutability": "nonpayable",
      "type": "function"
    }
  ],
  "bytecode": "0x60806040523480156200001157600080fd5b5060405162002b0638038062002b068339818101604052810190620000379190620002bd565b6200004c6000801b826200009560201b60201c565b81600160006101000a81548173ffffffffffffffffffffffffffffffffffffffff021916908373ffffffffffffffffffffffffffffffffffffffff160217905550505062000304565b620000a78282620000ab60201b60201c565b5050565b620000bd82826200019c60201b60201c565b6200019857600160008084815260200190815260200160002060000160008373ffffffffffffffffffffffffffffffffffffffff1673ffffffffffffffffffffffffffffffffffffffff16815260200190815260200160002060006101000a81548160ff0219169083151502179055506200013d6200020660201b60201c565b73ffffffffffffffffffffffffffffffffffffffff168173ffffffffffffffffffffffffffffffffffffffff16837f2f8788117e7eff1d82e926ec794901d17c78024a50270940304540a733656f0d60405160405180910390a45b5050565b600080600084815260200190815260200160002060000160008373ffffffffffffffffffffffffffffffffffffffff1673ffffffffffffffffffffffffffffffffffffffff16815260200190815260200160002060009054906101000a900460ff16905092915050565b600033905090565b600080fd5b600073ffffffffffffffffffffffffffffffffffffffff82169050919050565b6000620002408262000213565b9050919050565b6000620002548262000233565b9050919050565b620002668162000247565b81146200027257600080fd5b50565b60008151905062000286816200025b565b92915050565b620002978162000233565b8114620002a357600080fd5b50565b600081519050620002b7816200028c565b92915050565b60008060408385031215620002d757620002d66200020e565b5b6000620002e78582860162000275565b9250506020620002fa85828601620002a6565b9150509250929050565b6127f280620003146000396000f3fe608060405234801561001057600080fd5b50600436106100f55760003560e01c806336568abe11610097578063a217fddf11610066578063a217fddf14610289578063c3490263146102a7578063d547741f146102c3578063eaf65e08146102df576100f5565b806336568abe146102035780633c5456c91461021f57806340e58ee51461023d57806391d1485414610259576100f5565b80631891e47e116100d35780631891e47e14610164578063248a9ca3146101805780632d2956e6146101b05780632f2ff15d146101e7576100f5565b806301ffc9a7146100fa57806306661abd1461012a5780630cdd53f614610148575b600080fd5b610114600480360381019061010f91906115f9565b61030f565b6040516101219190611641565b60405180910390f35b610132610389565b60405161013f9190611675565b60405180910390f35b610162600480360381019061015d91906116bc565b61038f565b005b61017e6004803603810190610179919061179d565b6105d9565b005b61019a6004803603810190610195919061186d565b61088f565b6040516101a791906118a9565b60405180910390f35b6101ca60048036038101906101c591906118c4565b6108ae565b6040516101de989796959493929190611990565b60405180910390f35b61020160048036038101906101fc9190611a73565b6109b8565b005b61021d60048036038101906102189190611a73565b6109d9565b005b610227610a5c565b6040516102349190611b12565b60405180910390f35b610257600480360381019061025291906118c4565b610a82565b005b610273600480360381019061026e9190611a73565b610d3e565b6040516102809190611641565b60405180910390f35b610291610da8565b60405161029e91906118a9565b60405180910390f35b6102c160048036038101906102bc91906116bc565b610daf565b005b6102dd60048036038101906102d89190611a73565b610fbf565b005b6102f960048036038101906102f49190611b2d565b610fe0565b6040516103069190611675565b60405180910390f35b60007f7965db0b000000000000000000000000000000000000000000000000000000007bffffffffffffffffffffffffffffffffffffffffffffffffffffffff1916827bffffffffffffffffffffffffffffffffffffffffffffffffffffffff19161480610382575061038182611005565b5b9050919050565b60025481565b60006003600084815260200190815260200160002090508060040160009054906101000a900463ffffffff1663ffffffff16421015610403576040517f08c379a00000000000000000000000000000000000000000000000000000000081526004016103fa90611bdf565b60405180910390fd5b8060040160049054906101000a900463ffffffff1663ffffffff16421115610460576040517f08c379a000000000000000000000000000000000000000000000000000000000815260040161045790611c4b565b60405180910390fd5b818160030160008282546104749190611c9a565b92505081905550816004600085815260200190815260200160002060003373ffffffffffffffffffffffffffffffffffffffff1673ffffffffffffffffffffffffffffffffffffffff16815260200190815260200160002060008282546104db9190611c9a565b92505081905550600160009054906101000a900473ffffffffffffffffffffffffffffffffffffffff1673ffffffffffffffffffffffffffffffffffffffff166323b872dd3330856040518463ffffffff1660e01b815260040161054193929190611cdd565b6020604051808303816000875af1158015610560573d6000803e3d6000fd5b505050506040513d601f19601f820116820180604052508101906105849190611d40565b503373ffffffffffffffffffffffffffffffffffffffff16837f48def02da8c59b50861e25bab759a8a0c0de6fab6448ef85f32ce59397947d80846040516105cc9190611675565b60405180910390a3505050565b6105e66000801b33610d3e565b610625576040517f08c379a000000000000000000000000000000000000000000000000000000000815260040161061c90611db9565b60405180910390fd5b428263ffffffff16101561066e576040517f08c379a000000000000000000000000000000000000000000000000000000000815260040161066590611e4b565b60405180910390fd5b8163ffffffff168163ffffffff1610156106bd576040517f08c379a00000000000000000000000000000000000000000000000000000000081526004016106b490611edd565b60405180910390fd5b6001600260008282546106d09190611c9a565b9250508190555060405180610100016040528087815260200186868080601f016020809104026020016040519081016040528093929190818152602001838380828437600081840152601f19601f820116905080830192505050505050508152602001848152602001600081526020018363ffffffff1681526020018263ffffffff1681526020016000151581526020016000151581525060036000600254815260200190815260200160002060008201518160000155602082015181600101908161079c919061212e565b50604082015181600201556060820151816003015560808201518160040160006101000a81548163ffffffff021916908363ffffffff16021790555060a08201518160040160046101000a81548163ffffffff021916908363ffffffff16021790555060c08201518160040160086101000a81548160ff02191690831515021790555060e08201518160040160096101000a81548160ff0219169083151502179055509050507f46f64c067cc9225574aaaba82206236e79cb30e086ff675a6693f7f329045c9060025487878787878760405161087f979695949392919061223c565b60405180910390a1505050505050565b6000806000838152602001908152602001600020600101549050919050565b60036020528060005260406000206000915090508060000154908060010180546108d790611f5b565b80601f016020809104026020016040519081016040528092919081815260200182805461090390611f5b565b80156109505780601f1061092557610100808354040283529160200191610950565b820191906000526020600020905b81548152906001019060200180831161093357829003601f168201915b5050505050908060020154908060030154908060040160009054906101000a900463ffffffff16908060040160049054906101000a900463ffffffff16908060040160089054906101000a900460ff16908060040160099054906101000a900460ff16905088565b6109c18261088f565b6109ca8161106f565b6109d48383611083565b505050565b6109e1611163565b73ffffffffffffffffffffffffffffffffffffffff168173ffffffffffffffffffffffffffffffffffffffff1614610a4e576040517f08c379a0000000000000000000000000000000000000000000000000000000008152600401610a4590612318565b60405180910390fd5b610a58828261116b565b5050565b600160009054906101000a900473ffffffffffffffffffffffffffffffffffffffff1681565b610a8f6000801b33610d3e565b610ace576040517f08c379a0000000000000000000000000000000000000000000000000000000008152600401610ac590611db9565b60405180910390fd5b6000600360008381526020019081526020016000206040518061010001604052908160008201548152602001600182018054610b0990611f5b565b80601f0160208091040260200160405190810160405280929190818152602001828054610b3590611f5b565b8015610b825780601f10610b5757610100808354040283529160200191610b82565b820191906000526020600020905b815481529060010190602001808311610b6557829003601f168201915b5050505050815260200160028201548152602001600382015481526020016004820160009054906101000a900463ffffffff1663ffffffff1663ffffffff1681526020016004820160049054906101000a900463ffffffff1663ffffffff1663ffffffff1681526020016004820160089054906101000a900460ff161515151581526020016004820160099054906101000a900460ff1615151515815250509050806080015163ffffffff164210610c6f576040517f08c379a0000000000000000000000000000000000000000000000000000000008152600401610c66906123aa565b60405180910390fd5b60036000838152602001908152602001600020600080820160009055600182016000610c9b919061153a565b600282016000905560038201600090556004820160006101000a81549063ffffffff02191690556004820160046101000a81549063ffffffff02191690556004820160086101000a81549060ff02191690556004820160096101000a81549060ff021916905550507f8bf30e7ff26833413be5f69e1d373744864d600b664204b4a2f9844a8eedb9ed82604051610d329190611675565b60405180910390a15050565b600080600084815260200190815260200160002060000160008373ffffffffffffffffffffffffffffffffffffffff1673ffffffffffffffffffffffffffffffffffffffff16815260200190815260200160002060009054906101000a900460ff16905092915050565b6000801b81565b60006003600084815260200190815260200160002090508060040160049054906101000a900463ffffffff1663ffffffff164211610e22576040517f08c379a0000000000000000000000000000000000000000000000000000000008152600401610e199061243c565b60405180910390fd5b806002015481600301541015610e6d576040517f08c379a0000000000000000000000000000000000000000000000000000000008152600401610e64906124a8565b60405180910390fd5b8060040160089054906101000a900460ff1615610ebf576040517f08c379a0000000000000000000000000000000000000000000000000000000008152600401610eb690612514565b60405180910390fd5b60018160040160086101000a81548160ff021916908315150217905550600160009054906101000a900473ffffffffffffffffffffffffffffffffffffffff1673ffffffffffffffffffffffffffffffffffffffff1663a9059cbb3383600301546040518363ffffffff1660e01b8152600401610f3d929190612534565b6020604051808303816000875af1158015610f5c573d6000803e3d6000fd5b505050506040513d601f19601f82011682018060405250810190610f809190611d40565b507f022e3d29644ead4083349ca84d24bcac368b2461819b70f5921fea15de4dec4d8383604051610fb292919061255d565b60405180910390a1505050565b610fc88261088f565b610fd18161106f565b610fdb838361116b565b505050565b6004602052816000526040600020602052806000526040600020600091509150505481565b60007f01ffc9a7000000000000000000000000000000000000000000000000000000007bffffffffffffffffffffffffffffffffffffffffffffffffffffffff1916827bffffffffffffffffffffffffffffffffffffffffffffffffffffffff1916149050919050565b6110808161107b611163565b61124c565b50565b61108d8282610d3e565b61115f57600160008084815260200190815260200160002060000160008373ffffffffffffffffffffffffffffffffffffffff1673ffffffffffffffffffffffffffffffffffffffff16815260200190815260200160002060006101000a81548160ff021916908315150217905550611104611163565b73ffffffffffffffffffffffffffffffffffffffff168173ffffffffffffffffffffffffffffffffffffffff16837f2f8788117e7eff1d82e926ec794901d17c78024a50270940304540a733656f0d60405160405180910390a45b5050565b600033905090565b6111758282610d3e565b1561124857600080600084815260200190815260200160002060000160008373ffffffffffffffffffffffffffffffffffffffff1673ffffffffffffffffffffffffffffffffffffffff16815260200190815260200160002060006101000a81548160ff0219169083151502179055506111ed611163565b73ffffffffffffffffffffffffffffffffffffffff168173ffffffffffffffffffffffffffffffffffffffff16837ff6391f5c32d9c69d2a47ea670b442974b53935d1edc7fd64eb21e047a839171b60405160405180910390a45b5050565b6112568282610d3e565b6112cd57611263816112d1565b6112718360001c60206112fe565b60405160200161128292919061265a565b6040516020818303038152906040526040517f08c379a00000000000000000000000000000000000000000000000000000000081526004016112c49190612694565b60405180910390fd5b5050565b60606112f78273ffffffffffffffffffffffffffffffffffffffff16601460ff166112fe565b9050919050565b60606000600283600261131191906126b6565b61131b9190611c9a565b67ffffffffffffffff81111561133457611333611efd565b5b6040519080825280601f01601f1916602001820160405280156113665781602001600182028036833780820191505090505b5090507f30000000000000000000000000000000000000000000000000000000000000008160008151811061139e5761139d6126f8565b5b60200101907effffffffffffffffffffffffffffffffffffffffffffffffffffffffffffff1916908160001a9053507f780000000000000000000000000000000000000000000000000000000000000081600181518110611402576114016126f8565b5b60200101907effffffffffffffffffffffffffffffffffffffffffffffffffffffffffffff1916908160001a9053506000600184600261144291906126b6565b61144c9190611c9a565b90505b60018111156114ec577f3031323334353637383961626364656600000000000000000000000000000000600f86166010811061148e5761148d6126f8565b5b1a60f81b8282815181106114a5576114a46126f8565b5b60200101907effffffffffffffffffffffffffffffffffffffffffffffffffffffffffffff1916908160001a905350600485901c9450806114e590612727565b905061144f565b5060008414611530576040517f08c379a00000000000000000000000000000000000000000000000000000000081526004016115279061279c565b60405180910390fd5b8091505092915050565b50805461154690611f5b565b6000825580601f106115585750611577565b601f016020900490600052602060002090810190611576919061157a565b5b50565b5b8082111561159357600081600090555060010161157b565b5090565b600080fd5b600080fd5b60007fffffffff0000000000000000000000000000000000000000000000000000000082169050919050565b6115d6816115a1565b81146115e157600080fd5b50565b6000813590506115f3816115cd565b92915050565b60006020828403121561160f5761160e611597565b5b600061161d848285016115e4565b91505092915050565b60008115159050919050565b61163b81611626565b82525050565b60006020820190506116566000830184611632565b92915050565b6000819050919050565b61166f8161165c565b82525050565b600060208201905061168a6000830184611666565b92915050565b6116998161165c565b81146116a457600080fd5b50565b6000813590506116b681611690565b92915050565b600080604083850312156116d3576116d2611597565b5b60006116e1858286016116a7565b92505060206116f2858286016116a7565b9150509250929050565b600080fd5b600080fd5b600080fd5b60008083601f840112611721576117206116fc565b5b8235905067ffffffffffffffff81111561173e5761173d611701565b5b60208301915083600182028301111561175a57611759611706565b5b9250929050565b600063ffffffff82169050919050565b61177a81611761565b811461178557600080fd5b50565b60008135905061179781611771565b92915050565b60008060008060008060a087890312156117ba576117b9611597565b5b60006117c889828a016116a7565b965050602087013567ffffffffffffffff8111156117e9576117e861159c565b5b6117f589828a0161170b565b9550955050604061180889828a016116a7565b935050606061181989828a01611788565b925050608061182a89828a01611788565b9150509295509295509295565b6000819050919050565b61184a81611837565b811461185557600080fd5b50565b60008135905061186781611841565b92915050565b60006020828403121561188357611882611597565b5b600061189184828501611858565b91505092915050565b6118a381611837565b82525050565b60006020820190506118be600083018461189a565b92915050565b6000602082840312156118da576118d9611597565b5b60006118e8848285016116a7565b91505092915050565b600081519050919050565b600082825260208201905092915050565b60005b8381101561192b578082015181840152602081019050611910565b60008484015250505050565b6000601f19601f8301169050919050565b6000611953826118f1565b61195d81856118fc565b935061196d81856020860161190d565b61197681611937565b840191505092915050565b61198a81611761565b82525050565b6000610100820190506119a6600083018b611666565b81810360208301526119b8818a611948565b90506119c76040830189611666565b6119d46060830188611666565b6119e16080830187611981565b6119ee60a0830186611981565b6119fb60c0830185611632565b611a0860e0830184611632565b9998505050505050505050565b600073ffffffffffffffffffffffffffffffffffffffff82169050919050565b6000611a4082611a15565b9050919050565b611a5081611a35565b8114611a5b57600080fd5b50565b600081359050611a6d81611a47565b92915050565b60008060408385031215611a8a57611a89611597565b5b6000611a9885828601611858565b9250506020611aa985828601611a5e565b9150509250929050565b6000819050919050565b6000611ad8611ad3611ace84611a15565b611ab3565b611a15565b9050919050565b6000611aea82611abd565b9050919050565b6000611afc82611adf565b9050919050565b611b0c81611af1565b82525050565b6000602082019050611b276000830184611b03565b92915050565b60008060408385031215611b4457611b43611597565b5b6000611b52858286016116a7565b9250506020611b6385828601611a5e565b9150509250929050565b7f4a4957414e4b4f53483a2046756e642072616973696e67206e6f74207374617260008201527f7465642079657400000000000000000000000000000000000000000000000000602082015250565b6000611bc96027836118fc565b9150611bd482611b6d565b604082019050919050565b60006020820190508181036000830152611bf881611bbc565b9050919050565b7f4a4957414e4b4f53483a2046756e642072616973696e672066696e6973686564600082015250565b6000611c356020836118fc565b9150611c4082611bff565b602082019050919050565b60006020820190508181036000830152611c6481611c28565b9050919050565b7f4e487b7100000000000000000000000000000000000000000000000000000000600052601160045260246000fd5b6000611ca58261165c565b9150611cb08361165c565b9250828201905080821115611cc857611cc7611c6b565b5b92915050565b611cd781611a35565b82525050565b6000606082019050611cf26000830186611cce565b611cff6020830185611cce565b611d0c6040830184611666565b949350505050565b611d1d81611626565b8114611d2857600080fd5b50565b600081519050611d3a81611d14565b92915050565b600060208284031215611d5657611d55611597565b5b6000611d6484828501611d2b565b91505092915050565b7f4a4957414e4b4f53483a4d5553542042452041444d494e000000000000000000600082015250565b6000611da36017836118fc565b9150611dae82611d6d565b602082019050919050565b60006020820190508181036000830152611dd281611d96565b9050919050565b7f4a4957414e4b4f53483a207374617274696e672074696d65206973203c206e6f60008201527f7700000000000000000000000000000000000000000000000000000000000000602082015250565b6000611e356021836118fc565b9150611e4082611dd9565b604082019050919050565b60006020820190508181036000830152611e6481611e28565b9050919050565b7f4a4957414e4b4f53483a20656e64696e672074696d6520203c2073746172746960008201527f6e672074696d6520000000000000000000000000000000000000000000000000602082015250565b6000611ec76028836118fc565b9150611ed282611e6b565b604082019050919050565b60006020820190508181036000830152611ef681611eba565b9050919050565b7f4e487b7100000000000000000000000000000000000000000000000000000000600052604160045260246000fd5b7f4e487b7100000000000000000000000000000000000000000000000000000000600052602260045260246000fd5b60006002820490506001821680611f7357607f821691505b602082108103611f8657611f85611f2c565b5b50919050565b60008190508160005260206000209050919050565b60006020601f8301049050919050565b600082821b905092915050565b600060088302611fee7fffffffffffffffffffffffffffffffffffffffffffffffffffffffffffffffff82611fb1565b611ff88683611fb1565b95508019841693508086168417925050509392505050565b600061202b6120266120218461165c565b611ab3565b61165c565b9050919050565b6000819050919050565b61204583612010565b61205961205182612032565b848454611fbe565b825550505050565b600090565b61206e612061565b61207981848461203c565b505050565b5b8181101561209d57612092600082612066565b60018101905061207f565b5050565b601f8211156120e2576120b381611f8c565b6120bc84611fa1565b810160208510156120cb578190505b6120df6120d785611fa1565b83018261207e565b50505b505050565b600082821c905092915050565b6000612105600019846008026120e7565b1980831691505092915050565b600061211e83836120f4565b9150826002028217905092915050565b612137826118f1565b67ffffffffffffffff8111156121505761214f611efd565b5b61215a8254611f5b565b6121658282856120a1565b600060209050601f8311600181146121985760008415612186578287015190505b6121908582612112565b8655506121f8565b601f1984166121a686611f8c565b60005b828110156121ce578489015182556001820191506020850194506020810190506121a9565b868310156121eb57848901516121e7601f8916826120f4565b8355505b6001600288020188555050505b505050505050565b82818337600083830152505050565b600061221b83856118fc565b9350612228838584612200565b61223183611937565b840190509392505050565b600060c082019050612251600083018a611666565b61225e6020830189611666565b818103604083015261227181878961220f565b90506122806060830186611666565b61228d6080830185611981565b61229a60a0830184611981565b98975050505050505050565b7f416363657373436f6e74726f6c3a2063616e206f6e6c792072656e6f756e636560008201527f20726f6c657320666f722073656c660000000000000000000000000000000000602082015250565b6000612302602f836118fc565b915061230d826122a6565b604082019050919050565b60006020820190508181036000830152612331816122f5565b9050919050565b7f4a4957414e4b4f53483a2046756e642072616973696e6720616c72656164792060008201527f737461727465642063616e742062652063616e63656c65640000000000000000602082015250565b60006123946038836118fc565b915061239f82612338565b604082019050919050565b600060208201905081810360008301526123c381612387565b9050919050565b7f4a4957414e4b4f53483a2046756e642072616973696e67206e6f7420656e646560008201527f6400000000000000000000000000000000000000000000000000000000000000602082015250565b60006124266021836118fc565b9150612431826123ca565b604082019050919050565b6000602082019050818103600083015261245581612419565b9050919050565b7f4a4957414e4b4f53483a206861736e6f74207265616368656420676f616c0000600082015250565b6000612492601e836118fc565b915061249d8261245c565b602082019050919050565b600060208201905081810360008301526124c181612485565b9050919050565b7f4a4957414e4b4f53483a20416c726561647920636c61696d6564000000000000600082015250565b60006124fe601a836118fc565b9150612509826124c8565b602082019050919050565b6000602082019050818103600083015261252d816124f1565b9050919050565b60006040820190506125496000830185611cce565b6125566020830184611666565b9392505050565b60006040820190506125726000830185611666565b61257f6020830184611666565b9392505050565b600081905092915050565b7f416363657373436f6e74726f6c3a206163636f756e7420000000000000000000600082015250565b60006125c7601783612586565b91506125d282612591565b601782019050919050565b60006125e8826118f1565b6125f28185612586565b935061260281856020860161190d565b80840191505092915050565b7f206973206d697373696e6720726f6c6520000000000000000000000000000000600082015250565b6000612644601183612586565b915061264f8261260e565b601182019050919050565b6000612665826125ba565b915061267182856125dd565b915061267c82612637565b915061268882846125dd565b91508190509392505050565b600060208201905081810360008301526126ae8184611948565b905092915050565b60006126c18261165c565b91506126cc8361165c565b92508282026126da8161165c565b915082820484148315176126f1576126f0611c6b565b5b5092915050565b7f4e487b7100000000000000000000000000000000000000000000000000000000600052603260045260246000fd5b60006127328261165c565b91506000820361274557612744611c6b565b5b600182039050919050565b7f537472696e67733a20686578206c656e67746820696e73756666696369656e74600082015250565b60006127866020836118fc565b915061279182612750565b602082019050919050565b600060208201905081810360008301526127b581612779565b905091905056fea264697066735822122042003a60f764ebaf8408be604d9f6db0153dd198f077b7bd34e323724867c88264736f6c63430008120033",
  "immutableReferences": {},
  "source": "// SPDX-License-Identifier: MIT\r\npragma solidity >=0.4.22 <0.9.0;\r\n\r\nimport \"./JiwanKoshToken.sol\";\r\nimport \"../node_modules/@openzeppelin/contracts/access/AccessControl.sol\";\r\n\r\ncontract FundRaising is AccessControl {\r\n    event Claim(uint256 id, uint256 projectId);\r\n\r\n    event Create(\r\n        uint256 id,\r\n        uint256 projectId,\r\n        string aidAgency,\r\n        uint256 goal,\r\n        uint32 startAt,\r\n        uint32 endAt\r\n    );\r\n    event Cancel(uint256 id);\r\n    event Donate(uint256 indexed id, address indexed caller, uint256 amount);\r\n    struct RaiseFund {\r\n        uint256 projectId;\r\n        string aidAgency;\r\n        //total tokens to be collected\r\n        uint256 goal;\r\n        uint256 donated;\r\n        uint32 startAt;\r\n        uint32 endAt;\r\n        bool claimed;\r\n        bool canceled;\r\n    }\r\n\r\n    //state\r\n    JiwanKoshToken public JKT;\r\n    //FRid=> RaiseFund\r\n    uint256 public count;\r\n    mapping(uint256 => RaiseFund) public raiseFunds;\r\n    // RFid=>userAdd=>amount\r\n    mapping(uint256 => mapping(address => uint256)) public donatedAmount;\r\n\r\n    constructor(JiwanKoshToken _JKT, address _admin) {\r\n        _setupRole(DEFAULT_ADMIN_ROLE, _admin);\r\n        JKT = _JKT;\r\n    }\r\n\r\n    modifier OnlyAdmin() {\r\n        require(\r\n            hasRole(DEFAULT_ADMIN_ROLE, msg.sender),\r\n            \"JIWANKOSH:MUST BE ADMIN\"\r\n        );\r\n        _;\r\n    }\r\n\r\n    function createFundRaise(\r\n        uint256 _projectId,\r\n        string calldata _aidAgency,\r\n        uint256 _goal,\r\n        uint32 _startAt,\r\n        uint32 _endAt\r\n    ) public OnlyAdmin {\r\n        require(\r\n            _startAt >= block.timestamp,\r\n            \"JIWANKOSH: starting time is < now\"\r\n        );\r\n        require(_endAt >= _startAt, \"JIWANKOSH: ending time  < starting time \");\r\n        count += 1;\r\n        raiseFunds[count] = RaiseFund({\r\n            projectId: _projectId,\r\n            aidAgency: _aidAgency,\r\n            goal: _goal,\r\n            donated: 0,\r\n            startAt: _startAt,\r\n            endAt: _endAt,\r\n            claimed: false,\r\n            canceled: false\r\n        });\r\n        emit Create(count, _projectId, _aidAgency, _goal, _startAt, _endAt);\r\n    }\r\n\r\n    function cancel(uint256 _id) public OnlyAdmin {\r\n        RaiseFund memory raiseFund = raiseFunds[_id];\r\n        require(\r\n            block.timestamp < raiseFund.startAt,\r\n            \"JIWANKOSH: Fund raising already started cant be canceled\"\r\n        );\r\n        delete raiseFunds[_id];\r\n        emit Cancel(_id);\r\n    }\r\n\r\n    function donate(uint256 _id, uint256 _amount) external {\r\n        RaiseFund storage raiseFund = raiseFunds[_id];\r\n        require(\r\n            block.timestamp >= raiseFund.startAt,\r\n            \"JIWANKOSH: Fund raising not started yet\"\r\n        );\r\n        require(\r\n            block.timestamp <= raiseFund.endAt,\r\n            \"JIWANKOSH: Fund raising finished\"\r\n        );\r\n\r\n        raiseFund.donated += _amount;\r\n        donatedAmount[_id][msg.sender] += _amount;\r\n        JKT.transferFrom(msg.sender, address(this), _amount);\r\n\r\n        emit Donate(_id, msg.sender, _amount);\r\n    }\r\n\r\n    function claim(uint256 _id, uint256 _projectId) external {\r\n        RaiseFund storage raiseFund = raiseFunds[_id];\r\n        require(\r\n            block.timestamp > raiseFund.endAt,\r\n            \"JIWANKOSH: Fund raising not ended\"\r\n        );\r\n        require(\r\n            raiseFund.donated >= raiseFund.goal,\r\n            \"JIWANKOSH: hasnot reached goal\"\r\n        );\r\n        require(!raiseFund.claimed, \"JIWANKOSH: Already claimed\");\r\n        raiseFund.claimed = true;\r\n        JKT.transfer(msg.sender, raiseFund.donated);\r\n\r\n        emit Claim(_id, _projectId);\r\n    }\r\n}\r\n",
  "sourcePath": "C:\\Users\\DELL\\Documents\\JIWAN_KOSH_PROJECT\\contracts\\fundraising.sol",
  "compiler": {
    "name": "solc",
    "version": "0.8.18+commit.87f61d96.Emscripten.clang"
  },
  "schemaVersion": "3.4.12",
  "updatedAt": "2023-03-11T19:40:51.675Z",
  "devdoc": {
    "events": {
      "RoleAdminChanged(bytes32,bytes32,bytes32)": {
        "details": "Emitted when `newAdminRole` is set as ``role``'s admin role, replacing `previousAdminRole` `DEFAULT_ADMIN_ROLE` is the starting admin for all roles, despite {RoleAdminChanged} not being emitted signaling this. _Available since v3.1._"
      },
      "RoleGranted(bytes32,address,address)": {
        "details": "Emitted when `account` is granted `role`. `sender` is the account that originated the contract call, an admin role bearer except when using {AccessControl-_setupRole}."
      },
      "RoleRevoked(bytes32,address,address)": {
        "details": "Emitted when `account` is revoked `role`. `sender` is the account that originated the contract call:   - if using `revokeRole`, it is the admin role bearer   - if using `renounceRole`, it is the role bearer (i.e. `account`)"
      }
    },
    "kind": "dev",
    "methods": {
      "getRoleAdmin(bytes32)": {
        "details": "Returns the admin role that controls `role`. See {grantRole} and {revokeRole}. To change a role's admin, use {_setRoleAdmin}."
      },
      "grantRole(bytes32,address)": {
        "details": "Grants `role` to `account`. If `account` had not been already granted `role`, emits a {RoleGranted} event. Requirements: - the caller must have ``role``'s admin role. May emit a {RoleGranted} event."
      },
      "hasRole(bytes32,address)": {
        "details": "Returns `true` if `account` has been granted `role`."
      },
      "renounceRole(bytes32,address)": {
        "details": "Revokes `role` from the calling account. Roles are often managed via {grantRole} and {revokeRole}: this function's purpose is to provide a mechanism for accounts to lose their privileges if they are compromised (such as when a trusted device is misplaced). If the calling account had been revoked `role`, emits a {RoleRevoked} event. Requirements: - the caller must be `account`. May emit a {RoleRevoked} event."
      },
      "revokeRole(bytes32,address)": {
        "details": "Revokes `role` from `account`. If `account` had been granted `role`, emits a {RoleRevoked} event. Requirements: - the caller must have ``role``'s admin role. May emit a {RoleRevoked} event."
      },
      "supportsInterface(bytes4)": {
        "details": "See {IERC165-supportsInterface}."
      }
    },
    "version": 1
  },
  "userdoc": {
    "kind": "user",
    "methods": {},
    "version": 1
  }
}