{
  "contractName": "donations",
  "abi": [
    {
      "inputs": [
        {
          "internalType": "uint256",
          "name": "_target",
          "type": "uint256"
        },
        {
          "internalType": "uint256",
          "name": "_startDate",
          "type": "uint256"
        },
        {
          "internalType": "uint256",
          "name": "_deadline",
          "type": "uint256"
        },
        {
          "internalType": "uint256",
          "name": "_noOfBeneficiary",
          "type": "uint256"
        },
        {
          "internalType": "contract JiwanKoshToken",
          "name": "_token",
          "type": "address"
        }
      ],
      "stateMutability": "nonpayable",
      "type": "constructor"
    },
    {
      "anonymous": false,
      "inputs": [
        {
          "indexed": true,
          "internalType": "address",
          "name": "donor",
          "type": "address"
        },
        {
          "indexed": false,
          "internalType": "uint256",
          "name": "donatedAmount",
          "type": "uint256"
        }
      ],
      "name": "donationLog",
      "type": "event"
    },
    {
      "inputs": [],
      "name": "JKT",
      "outputs": [
        {
          "internalType": "contract JiwanKoshToken",
          "name": "",
          "type": "address"
        }
      ],
      "stateMutability": "view",
      "type": "function",
      "constant": true
    },
    {
      "inputs": [],
      "name": "aidAgency",
      "outputs": [
        {
          "internalType": "address",
          "name": "",
          "type": "address"
        }
      ],
      "stateMutability": "view",
      "type": "function",
      "constant": true
    },
    {
      "inputs": [],
      "name": "amountCollected",
      "outputs": [
        {
          "internalType": "uint256",
          "name": "",
          "type": "uint256"
        }
      ],
      "stateMutability": "view",
      "type": "function",
      "constant": true
    },
    {
      "inputs": [],
      "name": "claimableFund",
      "outputs": [
        {
          "internalType": "uint256",
          "name": "",
          "type": "uint256"
        }
      ],
      "stateMutability": "view",
      "type": "function",
      "constant": true
    },
    {
      "inputs": [],
      "name": "deadline",
      "outputs": [
        {
          "internalType": "uint256",
          "name": "",
          "type": "uint256"
        }
      ],
      "stateMutability": "view",
      "type": "function",
      "constant": true
    },
    {
      "inputs": [
        {
          "internalType": "address",
          "name": "",
          "type": "address"
        }
      ],
      "name": "donors",
      "outputs": [
        {
          "internalType": "uint256",
          "name": "",
          "type": "uint256"
        }
      ],
      "stateMutability": "view",
      "type": "function",
      "constant": true
    },
    {
      "inputs": [],
      "name": "minContribution",
      "outputs": [
        {
          "internalType": "uint256",
          "name": "",
          "type": "uint256"
        }
      ],
      "stateMutability": "view",
      "type": "function",
      "constant": true
    },
    {
      "inputs": [],
      "name": "noOfBeneficiary",
      "outputs": [
        {
          "internalType": "uint256",
          "name": "",
          "type": "uint256"
        }
      ],
      "stateMutability": "view",
      "type": "function",
      "constant": true
    },
    {
      "inputs": [],
      "name": "noOfDonors",
      "outputs": [
        {
          "internalType": "uint256",
          "name": "",
          "type": "uint256"
        }
      ],
      "stateMutability": "view",
      "type": "function",
      "constant": true
    },
    {
      "inputs": [],
      "name": "startDate",
      "outputs": [
        {
          "internalType": "uint256",
          "name": "",
          "type": "uint256"
        }
      ],
      "stateMutability": "view",
      "type": "function",
      "constant": true
    },
    {
      "inputs": [],
      "name": "target",
      "outputs": [
        {
          "internalType": "uint256",
          "name": "",
          "type": "uint256"
        }
      ],
      "stateMutability": "view",
      "type": "function",
      "constant": true
    },
    {
      "inputs": [
        {
          "internalType": "uint256",
          "name": "",
          "type": "uint256"
        }
      ],
      "name": "victims",
      "outputs": [
        {
          "internalType": "address",
          "name": "",
          "type": "address"
        }
      ],
      "stateMutability": "view",
      "type": "function",
      "constant": true
    },
    {
      "inputs": [
        {
          "internalType": "uint256",
          "name": "_donationAmount",
          "type": "uint256"
        }
      ],
      "name": "test",
      "outputs": [
        {
          "internalType": "address",
          "name": "",
          "type": "address"
        }
      ],
      "stateMutability": "nonpayable",
      "type": "function"
    },
    {
      "inputs": [
        {
          "internalType": "uint256",
          "name": "_donationAmount",
          "type": "uint256"
        }
      ],
      "name": "donateTokens",
      "outputs": [],
      "stateMutability": "nonpayable",
      "type": "function"
    },
    {
      "inputs": [],
      "name": "contractBalance",
      "outputs": [
        {
          "internalType": "uint256",
          "name": "",
          "type": "uint256"
        }
      ],
      "stateMutability": "view",
      "type": "function",
      "constant": true
    },
    {
      "inputs": [],
      "name": "refundDonation",
      "outputs": [],
      "stateMutability": "nonpayable",
      "type": "function"
    },
    {
      "inputs": [],
      "name": "claimBeneficiary",
      "outputs": [],
      "stateMutability": "nonpayable",
      "type": "function"
    }
  ],
  "bytecode": "0x60806040523480156200001157600080fd5b5060405162001596380380620015968339818101604052810190620000379190620001f0565b80600b60006101000a81548173ffffffffffffffffffffffffffffffffffffffff021916908373ffffffffffffffffffffffffffffffffffffffff160217905550670de0b6b3a7640000856200008e9190620002a7565b6002819055508342620000a29190620002f2565b6004819055508242620000b69190620002f2565b6003819055506802b5e3af16b188000060058190555033600160006101000a81548173ffffffffffffffffffffffffffffffffffffffff021916908373ffffffffffffffffffffffffffffffffffffffff160217905550816008819055506008546002546200012691906200035c565b600981905550505050505062000394565b600080fd5b6000819050919050565b62000151816200013c565b81146200015d57600080fd5b50565b600081519050620001718162000146565b92915050565b600073ffffffffffffffffffffffffffffffffffffffff82169050919050565b6000620001a48262000177565b9050919050565b6000620001b88262000197565b9050919050565b620001ca81620001ab565b8114620001d657600080fd5b50565b600081519050620001ea81620001bf565b92915050565b600080600080600060a086880312156200020f576200020e62000137565b5b60006200021f8882890162000160565b9550506020620002328882890162000160565b9450506040620002458882890162000160565b9350506060620002588882890162000160565b92505060806200026b88828901620001d9565b9150509295509295909350565b7f4e487b7100000000000000000000000000000000000000000000000000000000600052601160045260246000fd5b6000620002b4826200013c565b9150620002c1836200013c565b9250828202620002d1816200013c565b91508282048414831517620002eb57620002ea62000278565b5b5092915050565b6000620002ff826200013c565b91506200030c836200013c565b925082820190508082111562000327576200032662000278565b5b92915050565b7f4e487b7100000000000000000000000000000000000000000000000000000000600052601260045260246000fd5b600062000369826200013c565b915062000376836200013c565b9250826200038957620003886200032d565b5b828204905092915050565b6111f280620003a46000396000f3fe608060405234801561001057600080fd5b506004361061010b5760003560e01c806348d89b6b116100a2578063c31f230111610071578063c31f230114610262578063ca0cdea81461027e578063d4b83992146102ae578063dafee77d146102cc578063dff42bc5146102fc5761010b565b806348d89b6b1461021257806367b65c8c1461021c5780638b7afe2e14610226578063aaffadf3146102445761010b565b806329e99f07116100de57806329e99f0714610188578063332f7acf146101b85780633c5456c9146101d65780634225bcbe146101f45761010b565b80630559400814610110578063076be0a01461012e5780630b97bc861461014c57806329dcb0cf1461016a575b600080fd5b61011861031a565b6040516101259190610b1a565b60405180910390f35b610136610320565b6040516101439190610b76565b60405180910390f35b610154610346565b6040516101619190610b1a565b60405180910390f35b61017261034c565b60405161017f9190610b1a565b60405180910390f35b6101a2600480360381019061019d9190610bc2565b610352565b6040516101af9190610b76565b60405180910390f35b6101c0610368565b6040516101cd9190610b1a565b60405180910390f35b6101de61036e565b6040516101eb9190610c4e565b60405180910390f35b6101fc610394565b6040516102099190610b1a565b60405180910390f35b61021a61039a565b005b610224610618565b005b61022e61081a565b60405161023b9190610b1a565b60405180910390f35b61024c610822565b6040516102599190610b1a565b60405180910390f35b61027c60048036038101906102779190610bc2565b610828565b005b61029860048036038101906102939190610c95565b610a9e565b6040516102a59190610b1a565b60405180910390f35b6102b6610ab6565b6040516102c39190610b1a565b60405180910390f35b6102e660048036038101906102e19190610bc2565b610abc565b6040516102f39190610b76565b60405180910390f35b610304610afb565b6040516103119190610b1a565b60405180910390f35b60085481565b600160009054906101000a900473ffffffffffffffffffffffffffffffffffffffff1681565b60045481565b60035481565b6000803390508260098190555080915050919050565b60065481565b600b60009054906101000a900473ffffffffffffffffffffffffffffffffffffffff1681565b60095481565b426003541080156103af575060025460065410155b6103ee576040517f08c379a00000000000000000000000000000000000000000000000000000000081526004016103e590610d1f565b60405180910390fd5b60003390506000600190506000600a80549050905060005b8181101561049757600a818154811061042257610421610d3f565b5b9060005260206000200160009054906101000a900473ffffffffffffffffffffffffffffffffffffffff1673ffffffffffffffffffffffffffffffffffffffff168473ffffffffffffffffffffffffffffffffffffffff160361048457600092505b808061048f90610d9d565b915050610406565b50816104d8576040517f08c379a00000000000000000000000000000000000000000000000000000000081526004016104cf90610e31565b60405180910390fd5b600b60009054906101000a900473ffffffffffffffffffffffffffffffffffffffff1673ffffffffffffffffffffffffffffffffffffffff166323b872dd30856009546040518463ffffffff1660e01b815260040161053993929190610e51565b6020604051808303816000875af1158015610558573d6000803e3d6000fd5b505050506040513d601f19601f8201168201806040525081019061057c9190610ec0565b50600a839080600181540180825580915050600190039060005260206000200160009091909190916101000a81548173ffffffffffffffffffffffffffffffffffffffff021916908373ffffffffffffffffffffffffffffffffffffffff160217905550600954600660008282546105f49190610eed565b925050819055506008600081548092919061060e90610f21565b9190505550505050565b6002546006541061065e576040517f08c379a000000000000000000000000000000000000000000000000000000000815260040161065590610fbc565b60405180910390fd5b42600354106106a2576040517f08c379a00000000000000000000000000000000000000000000000000000000081526004016106999061104e565b60405180910390fd5b60008060003373ffffffffffffffffffffffffffffffffffffffff1673ffffffffffffffffffffffffffffffffffffffff16815260200190815260200160002054116106ed57600080fd5b6000339050600b60009054906101000a900473ffffffffffffffffffffffffffffffffffffffff1673ffffffffffffffffffffffffffffffffffffffff166323b872dd30836000808673ffffffffffffffffffffffffffffffffffffffff1673ffffffffffffffffffffffffffffffffffffffff168152602001908152602001600020546040518463ffffffff1660e01b815260040161078f93929190610e51565b6020604051808303816000875af11580156107ae573d6000803e3d6000fd5b505050506040513d601f19601f820116820180604052508101906107d29190610ec0565b5060008060003373ffffffffffffffffffffffffffffffffffffffff1673ffffffffffffffffffffffffffffffffffffffff1681526020019081526020016000208190555050565b600047905090565b60055481565b60003390506000670de0b6b3a764000083610843919061106e565b90506004544210158015610858575060035442105b610897576040517f08c379a000000000000000000000000000000000000000000000000000000000815260040161088e906110fc565b60405180910390fd5b60055481116108db576040517f08c379a00000000000000000000000000000000000000000000000000000000081526004016108d290611168565b60405180910390fd5b60008060008473ffffffffffffffffffffffffffffffffffffffff1673ffffffffffffffffffffffffffffffffffffffff168152602001908152602001600020540361093a576007600081548092919061093490610d9d565b91905055505b600b60009054906101000a900473ffffffffffffffffffffffffffffffffffffffff1673ffffffffffffffffffffffffffffffffffffffff166323b872dd8330846040518463ffffffff1660e01b815260040161099993929190610e51565b6020604051808303816000875af11580156109b8573d6000803e3d6000fd5b505050506040513d601f19601f820116820180604052508101906109dc9190610ec0565b50806000808473ffffffffffffffffffffffffffffffffffffffff1673ffffffffffffffffffffffffffffffffffffffff1681526020019081526020016000206000828254610a2b9190611188565b925050819055508060066000828254610a449190611188565b925050819055508173ffffffffffffffffffffffffffffffffffffffff167f22682b30fa411bb81f550af7c3ee5878ae5aecfb5a591c42fcfe89dad670495382604051610a919190610b1a565b60405180910390a2505050565b60006020528060005260406000206000915090505481565b60025481565b600a8181548110610acc57600080fd5b906000526020600020016000915054906101000a900473ffffffffffffffffffffffffffffffffffffffff1681565b60075481565b6000819050919050565b610b1481610b01565b82525050565b6000602082019050610b2f6000830184610b0b565b92915050565b600073ffffffffffffffffffffffffffffffffffffffff82169050919050565b6000610b6082610b35565b9050919050565b610b7081610b55565b82525050565b6000602082019050610b8b6000830184610b67565b92915050565b600080fd5b610b9f81610b01565b8114610baa57600080fd5b50565b600081359050610bbc81610b96565b92915050565b600060208284031215610bd857610bd7610b91565b5b6000610be684828501610bad565b91505092915050565b6000819050919050565b6000610c14610c0f610c0a84610b35565b610bef565b610b35565b9050919050565b6000610c2682610bf9565b9050919050565b6000610c3882610c1b565b9050919050565b610c4881610c2d565b82525050565b6000602082019050610c636000830184610c3f565b92915050565b610c7281610b55565b8114610c7d57600080fd5b50565b600081359050610c8f81610c69565b92915050565b600060208284031215610cab57610caa610b91565b5b6000610cb984828501610c80565b91505092915050565b600082825260208201905092915050565b7f43616e6e6f7420636c61696d2079657421210000000000000000000000000000600082015250565b6000610d09601283610cc2565b9150610d1482610cd3565b602082019050919050565b60006020820190508181036000830152610d3881610cfc565b9050919050565b7f4e487b7100000000000000000000000000000000000000000000000000000000600052603260045260246000fd5b7f4e487b7100000000000000000000000000000000000000000000000000000000600052601160045260246000fd5b6000610da882610b01565b91507fffffffffffffffffffffffffffffffffffffffffffffffffffffffffffffffff8203610dda57610dd9610d6e565b5b600182019050919050565b7f416c726561647920436c61696d65640000000000000000000000000000000000600082015250565b6000610e1b600f83610cc2565b9150610e2682610de5565b602082019050919050565b60006020820190508181036000830152610e4a81610e0e565b9050919050565b6000606082019050610e666000830186610b67565b610e736020830185610b67565b610e806040830184610b0b565b949350505050565b60008115159050919050565b610e9d81610e88565b8114610ea857600080fd5b50565b600081519050610eba81610e94565b92915050565b600060208284031215610ed657610ed5610b91565b5b6000610ee484828501610eab565b91505092915050565b6000610ef882610b01565b9150610f0383610b01565b9250828203905081811115610f1b57610f1a610d6e565b5b92915050565b6000610f2c82610b01565b915060008203610f3f57610f3e610d6e565b5b600182039050919050565b7f54617267657420666f722070726f6a656374206d65742e43616e6e6f7420626560008201527f20726566756e6465642121000000000000000000000000000000000000000000602082015250565b6000610fa6602b83610cc2565b9150610fb182610f4a565b604082019050919050565b60006020820190508181036000830152610fd581610f99565b9050919050565b7f5761697420756e74696c20446f6e6174696f6e20706572696f64206973204f7660008201527f65722e0000000000000000000000000000000000000000000000000000000000602082015250565b6000611038602383610cc2565b915061104382610fdc565b604082019050919050565b600060208201905081810360008301526110678161102b565b9050919050565b600061107982610b01565b915061108483610b01565b925082820261109281610b01565b915082820484148315176110a9576110a8610d6e565b5b5092915050565b7f446f6e6174696f6e206e6f7420616374697665207269676874206e6f77000000600082015250565b60006110e6601d83610cc2565b91506110f1826110b0565b602082019050919050565b60006020820190508181036000830152611115816110d9565b9050919050565b7f4d696e696d756d20616d6f756e74206e6f74206d657421000000000000000000600082015250565b6000611152601783610cc2565b915061115d8261111c565b602082019050919050565b6000602082019050818103600083015261118181611145565b9050919050565b600061119382610b01565b915061119e83610b01565b92508282019050808211156111b6576111b5610d6e565b5b9291505056fea2646970667358221220e669a3f97175ccc365f0751f4a0d1fe586516920e4cc3fba91648705d04a71b564736f6c63430008120033",
  "immutableReferences": {},
  "source": "//SPDX-License-Identifier: GPL-0.3.0\r\n\r\npragma solidity ^0.8.0;\r\n\r\nimport \"./JiwanKoshToken.sol\";\r\n\r\ncontract donations {\r\n    mapping(address => uint256) public donors;\r\n    address public aidAgency;\r\n    uint256 public target;\r\n    uint256 public deadline;\r\n    uint256 public startDate;\r\n    uint256 public minContribution;\r\n    uint256 public amountCollected;\r\n    uint256 public noOfDonors;\r\n    uint256 public noOfBeneficiary;\r\n    uint256 public claimableFund;\r\n    address[] public victims;\r\n    JiwanKoshToken public JKT;\r\n\r\n    event donationLog(address indexed donor, uint256 donatedAmount);\r\n\r\n    constructor(\r\n        uint256 _target,\r\n        uint256 _startDate,\r\n        uint256 _deadline,\r\n        uint256 _noOfBeneficiary,\r\n        JiwanKoshToken _token\r\n    ) {\r\n        JKT = _token;\r\n        target = _target * (10 ** 18);\r\n        startDate = block.timestamp + _startDate;\r\n        deadline = block.timestamp + _deadline;\r\n        minContribution = 50 * (10 ** 18);\r\n        aidAgency = msg.sender;\r\n        noOfBeneficiary = _noOfBeneficiary;\r\n        claimableFund = target / noOfBeneficiary;\r\n    }\r\n\r\n    function test(uint256 _donationAmount) public returns (address) {\r\n        address _donor = msg.sender;\r\n        claimableFund = _donationAmount;\r\n        return _donor;\r\n    }\r\n\r\n    function donateTokens(uint256 _donationAmount) public {\r\n        address _donor = msg.sender;\r\n        uint256 donationAmount = _donationAmount * (10 ** 18);\r\n        require(\r\n            block.timestamp >= startDate && block.timestamp < deadline,\r\n            \"Donation not active right now\"\r\n        );\r\n        require(donationAmount > minContribution, \"Minimum amount not met!\");\r\n\r\n        if (donors[_donor] == 0) {\r\n            noOfDonors++;\r\n        }\r\n        // JKT.approve(address(this), donationAmount);\r\n        JKT.transferFrom(_donor, address(this), donationAmount);\r\n        donors[_donor] += donationAmount;\r\n        amountCollected += donationAmount;\r\n        emit donationLog(_donor, donationAmount);\r\n    }\r\n\r\n    function contractBalance() public view returns (uint256) {\r\n        return address(this).balance;\r\n    }\r\n\r\n    function refundDonation() public {\r\n        require(\r\n            amountCollected < target,\r\n            \"Target for project met.Cannot be refunded!!\"\r\n        ); //message is incase the require condition is not met\r\n        require(\r\n            deadline < block.timestamp,\r\n            \"Wait until Donation period is Over.\"\r\n        );\r\n        require(donors[msg.sender] > 0);\r\n        address _donor = (msg.sender);\r\n        JKT.transferFrom(address(this), _donor, donors[_donor]);\r\n        donors[msg.sender] = 0;\r\n    }\r\n\r\n    function claimBeneficiary() public {\r\n        require(\r\n            deadline < block.timestamp && amountCollected >= target,\r\n            \"Cannot claim yet!!\"\r\n        );\r\n        address claimer = msg.sender;\r\n        bool canClaim = true;\r\n        uint256 lengthOfArray = victims.length;\r\n        for (\r\n            uint256 i;\r\n            i < lengthOfArray;\r\n            i++ //this loop finds the beneficiary from array and then check if they have claimed or not\r\n        ) {\r\n            if (claimer == victims[i]) {\r\n                canClaim = false;\r\n            }\r\n        }\r\n        require(canClaim, \"Already Claimed\");\r\n        JKT.transferFrom(address(this), claimer, claimableFund);\r\n        victims.push(claimer);\r\n        amountCollected -= claimableFund;\r\n        noOfBeneficiary--;\r\n    }\r\n}\r\n",
  "sourcePath": "C:\\Users\\DELL\\Documents\\JIWAN_KOSH_PROJECT\\contracts\\donations.sol",
  "compiler": {
    "name": "solc",
    "version": "0.8.18+commit.87f61d96.Emscripten.clang"
  },
  "schemaVersion": "3.4.12",
  "updatedAt": "2023-03-11T19:42:12.829Z",
  "networkType": "ethereum",
  "devdoc": {
    "kind": "dev",
    "methods": {},
    "version": 1
  },
  "userdoc": {
    "kind": "user",
    "methods": {},
    "version": 1
  }
}