{
  "contractName": "donations",
  "abi": [
    {
      "inputs": [
        {
          "internalType": "uint256",
          "name": "_target",
          "type": "uint256"
        },
        {
          "internalType": "uint256",
          "name": "_startDate",
          "type": "uint256"
        },
        {
          "internalType": "uint256",
          "name": "_deadline",
          "type": "uint256"
        },
        {
          "internalType": "uint256",
          "name": "_noOfBeneficiary",
          "type": "uint256"
        },
        {
          "internalType": "contract JiwanKoshToken",
          "name": "_token",
          "type": "address"
        }
      ],
      "stateMutability": "nonpayable",
      "type": "constructor"
    },
    {
      "anonymous": false,
      "inputs": [
        {
          "indexed": true,
          "internalType": "address",
          "name": "donor",
          "type": "address"
        },
        {
          "indexed": false,
          "internalType": "uint256",
          "name": "donatedAmount",
          "type": "uint256"
        }
      ],
      "name": "donationLog",
      "type": "event"
    },
    {
      "inputs": [],
      "name": "JKT",
      "outputs": [
        {
          "internalType": "contract JiwanKoshToken",
          "name": "",
          "type": "address"
        }
      ],
      "stateMutability": "view",
      "type": "function",
      "constant": true
    },
    {
      "inputs": [],
      "name": "aidAgency",
      "outputs": [
        {
          "internalType": "address",
          "name": "",
          "type": "address"
        }
      ],
      "stateMutability": "view",
      "type": "function",
      "constant": true
    },
    {
      "inputs": [],
      "name": "amountCollected",
      "outputs": [
        {
          "internalType": "uint256",
          "name": "",
          "type": "uint256"
        }
      ],
      "stateMutability": "view",
      "type": "function",
      "constant": true
    },
    {
      "inputs": [],
      "name": "claimableFund",
      "outputs": [
        {
          "internalType": "uint256",
          "name": "",
          "type": "uint256"
        }
      ],
      "stateMutability": "view",
      "type": "function",
      "constant": true
    },
    {
      "inputs": [],
      "name": "deadline",
      "outputs": [
        {
          "internalType": "uint256",
          "name": "",
          "type": "uint256"
        }
      ],
      "stateMutability": "view",
      "type": "function",
      "constant": true
    },
    {
      "inputs": [
        {
          "internalType": "address",
          "name": "",
          "type": "address"
        }
      ],
      "name": "donors",
      "outputs": [
        {
          "internalType": "uint256",
          "name": "",
          "type": "uint256"
        }
      ],
      "stateMutability": "view",
      "type": "function",
      "constant": true
    },
    {
      "inputs": [],
      "name": "minContribution",
      "outputs": [
        {
          "internalType": "uint256",
          "name": "",
          "type": "uint256"
        }
      ],
      "stateMutability": "view",
      "type": "function",
      "constant": true
    },
    {
      "inputs": [],
      "name": "noOfBeneficiary",
      "outputs": [
        {
          "internalType": "uint256",
          "name": "",
          "type": "uint256"
        }
      ],
      "stateMutability": "view",
      "type": "function",
      "constant": true
    },
    {
      "inputs": [],
      "name": "noOfDonors",
      "outputs": [
        {
          "internalType": "uint256",
          "name": "",
          "type": "uint256"
        }
      ],
      "stateMutability": "view",
      "type": "function",
      "constant": true
    },
    {
      "inputs": [],
      "name": "startDate",
      "outputs": [
        {
          "internalType": "uint256",
          "name": "",
          "type": "uint256"
        }
      ],
      "stateMutability": "view",
      "type": "function",
      "constant": true
    },
    {
      "inputs": [],
      "name": "target",
      "outputs": [
        {
          "internalType": "uint256",
          "name": "",
          "type": "uint256"
        }
      ],
      "stateMutability": "view",
      "type": "function",
      "constant": true
    },
    {
      "inputs": [
        {
          "internalType": "uint256",
          "name": "",
          "type": "uint256"
        }
      ],
      "name": "victims",
      "outputs": [
        {
          "internalType": "address",
          "name": "",
          "type": "address"
        }
      ],
      "stateMutability": "view",
      "type": "function",
      "constant": true
    },
    {
      "inputs": [
        {
          "internalType": "uint256",
          "name": "_donationAmount",
          "type": "uint256"
        }
      ],
      "name": "test",
      "outputs": [
        {
          "internalType": "address",
          "name": "",
          "type": "address"
        }
      ],
      "stateMutability": "nonpayable",
      "type": "function"
    },
    {
      "inputs": [
        {
          "internalType": "uint256",
          "name": "_donationAmount",
          "type": "uint256"
        }
      ],
      "name": "donateTokens",
      "outputs": [],
      "stateMutability": "nonpayable",
      "type": "function"
    },
    {
      "inputs": [],
      "name": "contractBalance",
      "outputs": [
        {
          "internalType": "uint256",
          "name": "",
          "type": "uint256"
        }
      ],
      "stateMutability": "view",
      "type": "function",
      "constant": true
    },
    {
      "inputs": [],
      "name": "refundDonation",
      "outputs": [],
      "stateMutability": "nonpayable",
      "type": "function"
    },
    {
      "inputs": [],
      "name": "approveClaimer",
      "outputs": [],
      "stateMutability": "nonpayable",
      "type": "function"
    },
    {
      "inputs": [],
      "name": "claimBeneficiary",
      "outputs": [],
      "stateMutability": "nonpayable",
      "type": "function"
    }
  ],
  "bytecode": "0x60806040523480156200001157600080fd5b5060405162001681380380620016818339818101604052810190620000379190620001f0565b80600b60006101000a81548173ffffffffffffffffffffffffffffffffffffffff021916908373ffffffffffffffffffffffffffffffffffffffff160217905550670de0b6b3a7640000856200008e9190620002a7565b6002819055508342620000a29190620002f2565b6004819055508242620000b69190620002f2565b6003819055506802b5e3af16b188000060058190555033600160006101000a81548173ffffffffffffffffffffffffffffffffffffffff021916908373ffffffffffffffffffffffffffffffffffffffff160217905550816008819055506008546002546200012691906200035c565b600981905550505050505062000394565b600080fd5b6000819050919050565b62000151816200013c565b81146200015d57600080fd5b50565b600081519050620001718162000146565b92915050565b600073ffffffffffffffffffffffffffffffffffffffff82169050919050565b6000620001a48262000177565b9050919050565b6000620001b88262000197565b9050919050565b620001ca81620001ab565b8114620001d657600080fd5b50565b600081519050620001ea81620001bf565b92915050565b600080600080600060a086880312156200020f576200020e62000137565b5b60006200021f8882890162000160565b9550506020620002328882890162000160565b9450506040620002458882890162000160565b9350506060620002588882890162000160565b92505060806200026b88828901620001d9565b9150509295509295909350565b7f4e487b7100000000000000000000000000000000000000000000000000000000600052601160045260246000fd5b6000620002b4826200013c565b9150620002c1836200013c565b9250828202620002d1816200013c565b91508282048414831517620002eb57620002ea62000278565b5b5092915050565b6000620002ff826200013c565b91506200030c836200013c565b925082820190508082111562000327576200032662000278565b5b92915050565b7f4e487b7100000000000000000000000000000000000000000000000000000000600052601260045260246000fd5b600062000369826200013c565b915062000376836200013c565b9250826200038957620003886200032d565b5b828204905092915050565b6112dd80620003a46000396000f3fe608060405234801561001057600080fd5b50600436106101165760003560e01c806367b65c8c116100a2578063c31f230111610071578063c31f230114610277578063ca0cdea814610293578063d4b83992146102c3578063dafee77d146102e1578063dff42bc51461031157610116565b806367b65c8c146102275780638b7afe2e146102315780638e7651f81461024f578063aaffadf31461025957610116565b806329e99f07116100e957806329e99f0714610193578063332f7acf146101c35780633c5456c9146101e15780634225bcbe146101ff57806348d89b6b1461021d57610116565b8063055940081461011b578063076be0a0146101395780630b97bc861461015757806329dcb0cf14610175575b600080fd5b61012361032f565b6040516101309190610bdc565b60405180910390f35b610141610335565b60405161014e9190610c38565b60405180910390f35b61015f61035b565b60405161016c9190610bdc565b60405180910390f35b61017d610361565b60405161018a9190610bdc565b60405180910390f35b6101ad60048036038101906101a89190610c84565b610367565b6040516101ba9190610c38565b60405180910390f35b6101cb61037d565b6040516101d89190610bdc565b60405180910390f35b6101e9610383565b6040516101f69190610d10565b60405180910390f35b6102076103a9565b6040516102149190610bdc565b60405180910390f35b6102256103af565b005b61022f610635565b005b610239610837565b6040516102469190610bdc565b60405180910390f35b61025761083f565b005b6102616108e4565b60405161026e9190610bdc565b60405180910390f35b610291600480360381019061028c9190610c84565b6108ea565b005b6102ad60048036038101906102a89190610d57565b610b60565b6040516102ba9190610bdc565b60405180910390f35b6102cb610b78565b6040516102d89190610bdc565b60405180910390f35b6102fb60048036038101906102f69190610c84565b610b7e565b6040516103089190610c38565b60405180910390f35b610319610bbd565b6040516103269190610bdc565b60405180910390f35b60085481565b600160009054906101000a900473ffffffffffffffffffffffffffffffffffffffff1681565b60045481565b60035481565b6000803390508260098190555080915050919050565b60065481565b600b60009054906101000a900473ffffffffffffffffffffffffffffffffffffffff1681565b60095481565b6103b761083f565b426003541080156103cc575060025460065410155b61040b576040517f08c379a000000000000000000000000000000000000000000000000000000000815260040161040290610de1565b60405180910390fd5b60003390506000600190506000600a80549050905060005b818110156104b457600a818154811061043f5761043e610e01565b5b9060005260206000200160009054906101000a900473ffffffffffffffffffffffffffffffffffffffff1673ffffffffffffffffffffffffffffffffffffffff168473ffffffffffffffffffffffffffffffffffffffff16036104a157600092505b80806104ac90610e5f565b915050610423565b50816104f5576040517f08c379a00000000000000000000000000000000000000000000000000000000081526004016104ec90610ef3565b60405180910390fd5b600b60009054906101000a900473ffffffffffffffffffffffffffffffffffffffff1673ffffffffffffffffffffffffffffffffffffffff166323b872dd30856009546040518463ffffffff1660e01b815260040161055693929190610f13565b6020604051808303816000875af1158015610575573d6000803e3d6000fd5b505050506040513d601f19601f820116820180604052508101906105999190610f82565b50600a839080600181540180825580915050600190039060005260206000200160009091909190916101000a81548173ffffffffffffffffffffffffffffffffffffffff021916908373ffffffffffffffffffffffffffffffffffffffff160217905550600954600660008282546106119190610faf565b925050819055506008600081548092919061062b90610fe3565b9190505550505050565b6002546006541061067b576040517f08c379a00000000000000000000000000000000000000000000000000000000081526004016106729061107e565b60405180910390fd5b42600354106106bf576040517f08c379a00000000000000000000000000000000000000000000000000000000081526004016106b690611110565b60405180910390fd5b60008060003373ffffffffffffffffffffffffffffffffffffffff1673ffffffffffffffffffffffffffffffffffffffff168152602001908152602001600020541161070a57600080fd5b6000339050600b60009054906101000a900473ffffffffffffffffffffffffffffffffffffffff1673ffffffffffffffffffffffffffffffffffffffff166323b872dd30836000808673ffffffffffffffffffffffffffffffffffffffff1673ffffffffffffffffffffffffffffffffffffffff168152602001908152602001600020546040518463ffffffff1660e01b81526004016107ac93929190610f13565b6020604051808303816000875af11580156107cb573d6000803e3d6000fd5b505050506040513d601f19601f820116820180604052508101906107ef9190610f82565b5060008060003373ffffffffffffffffffffffffffffffffffffffff1673ffffffffffffffffffffffffffffffffffffffff1681526020019081526020016000208190555050565b600047905090565b600b60009054906101000a900473ffffffffffffffffffffffffffffffffffffffff1673ffffffffffffffffffffffffffffffffffffffff1663095ea7b3306009546040518363ffffffff1660e01b815260040161089e929190611130565b6020604051808303816000875af11580156108bd573d6000803e3d6000fd5b505050506040513d601f19601f820116820180604052508101906108e19190610f82565b50565b60055481565b60003390506000670de0b6b3a7640000836109059190611159565b9050600454421015801561091a575060035442105b610959576040517f08c379a0000000000000000000000000000000000000000000000000000000008152600401610950906111e7565b60405180910390fd5b600554811161099d576040517f08c379a000000000000000000000000000000000000000000000000000000000815260040161099490611253565b60405180910390fd5b60008060008473ffffffffffffffffffffffffffffffffffffffff1673ffffffffffffffffffffffffffffffffffffffff16815260200190815260200160002054036109fc57600760008154809291906109f690610e5f565b91905055505b600b60009054906101000a900473ffffffffffffffffffffffffffffffffffffffff1673ffffffffffffffffffffffffffffffffffffffff166323b872dd8330846040518463ffffffff1660e01b8152600401610a5b93929190610f13565b6020604051808303816000875af1158015610a7a573d6000803e3d6000fd5b505050506040513d601f19601f82011682018060405250810190610a9e9190610f82565b50806000808473ffffffffffffffffffffffffffffffffffffffff1673ffffffffffffffffffffffffffffffffffffffff1681526020019081526020016000206000828254610aed9190611273565b925050819055508060066000828254610b069190611273565b925050819055508173ffffffffffffffffffffffffffffffffffffffff167f22682b30fa411bb81f550af7c3ee5878ae5aecfb5a591c42fcfe89dad670495382604051610b539190610bdc565b60405180910390a2505050565b60006020528060005260406000206000915090505481565b60025481565b600a8181548110610b8e57600080fd5b906000526020600020016000915054906101000a900473ffffffffffffffffffffffffffffffffffffffff1681565b60075481565b6000819050919050565b610bd681610bc3565b82525050565b6000602082019050610bf16000830184610bcd565b92915050565b600073ffffffffffffffffffffffffffffffffffffffff82169050919050565b6000610c2282610bf7565b9050919050565b610c3281610c17565b82525050565b6000602082019050610c4d6000830184610c29565b92915050565b600080fd5b610c6181610bc3565b8114610c6c57600080fd5b50565b600081359050610c7e81610c58565b92915050565b600060208284031215610c9a57610c99610c53565b5b6000610ca884828501610c6f565b91505092915050565b6000819050919050565b6000610cd6610cd1610ccc84610bf7565b610cb1565b610bf7565b9050919050565b6000610ce882610cbb565b9050919050565b6000610cfa82610cdd565b9050919050565b610d0a81610cef565b82525050565b6000602082019050610d256000830184610d01565b92915050565b610d3481610c17565b8114610d3f57600080fd5b50565b600081359050610d5181610d2b565b92915050565b600060208284031215610d6d57610d6c610c53565b5b6000610d7b84828501610d42565b91505092915050565b600082825260208201905092915050565b7f43616e6e6f7420636c61696d2079657421210000000000000000000000000000600082015250565b6000610dcb601283610d84565b9150610dd682610d95565b602082019050919050565b60006020820190508181036000830152610dfa81610dbe565b9050919050565b7f4e487b7100000000000000000000000000000000000000000000000000000000600052603260045260246000fd5b7f4e487b7100000000000000000000000000000000000000000000000000000000600052601160045260246000fd5b6000610e6a82610bc3565b91507fffffffffffffffffffffffffffffffffffffffffffffffffffffffffffffffff8203610e9c57610e9b610e30565b5b600182019050919050565b7f416c726561647920436c61696d65640000000000000000000000000000000000600082015250565b6000610edd600f83610d84565b9150610ee882610ea7565b602082019050919050565b60006020820190508181036000830152610f0c81610ed0565b9050919050565b6000606082019050610f286000830186610c29565b610f356020830185610c29565b610f426040830184610bcd565b949350505050565b60008115159050919050565b610f5f81610f4a565b8114610f6a57600080fd5b50565b600081519050610f7c81610f56565b92915050565b600060208284031215610f9857610f97610c53565b5b6000610fa684828501610f6d565b91505092915050565b6000610fba82610bc3565b9150610fc583610bc3565b9250828203905081811115610fdd57610fdc610e30565b5b92915050565b6000610fee82610bc3565b91506000820361100157611000610e30565b5b600182039050919050565b7f54617267657420666f722070726f6a656374206d65742e43616e6e6f7420626560008201527f20726566756e6465642121000000000000000000000000000000000000000000602082015250565b6000611068602b83610d84565b91506110738261100c565b604082019050919050565b600060208201905081810360008301526110978161105b565b9050919050565b7f5761697420756e74696c20446f6e6174696f6e20706572696f64206973204f7660008201527f65722e0000000000000000000000000000000000000000000000000000000000602082015250565b60006110fa602383610d84565b91506111058261109e565b604082019050919050565b60006020820190508181036000830152611129816110ed565b9050919050565b60006040820190506111456000830185610c29565b6111526020830184610bcd565b9392505050565b600061116482610bc3565b915061116f83610bc3565b925082820261117d81610bc3565b9150828204841483151761119457611193610e30565b5b5092915050565b7f446f6e6174696f6e206e6f7420616374697665207269676874206e6f77000000600082015250565b60006111d1601d83610d84565b91506111dc8261119b565b602082019050919050565b60006020820190508181036000830152611200816111c4565b9050919050565b7f4d696e696d756d20616d6f756e74206e6f74206d657421000000000000000000600082015250565b600061123d601783610d84565b915061124882611207565b602082019050919050565b6000602082019050818103600083015261126c81611230565b9050919050565b600061127e82610bc3565b915061128983610bc3565b92508282019050808211156112a1576112a0610e30565b5b9291505056fea26469706673582212203ea2730e877d318a40413817bc15a0c7894d1911d5e4adef44fde0f9b6daf98d64736f6c63430008120033",
  "immutableReferences": {},
  "source": "//SPDX-License-Identifier: GPL-0.3.0\r\n\r\npragma solidity ^0.8.0;\r\n\r\nimport \"./JiwanKoshToken.sol\";\r\n\r\ncontract donations {\r\n    mapping(address => uint256) public donors;\r\n    address public aidAgency;\r\n    uint256 public target;\r\n    uint256 public deadline;\r\n    uint256 public startDate;\r\n    uint256 public minContribution;\r\n    uint256 public amountCollected;\r\n    uint256 public noOfDonors;\r\n    uint256 public noOfBeneficiary;\r\n    uint256 public claimableFund;\r\n    address[] public victims;\r\n    JiwanKoshToken public JKT;\r\n\r\n    event donationLog(address indexed donor, uint256 donatedAmount);\r\n\r\n    constructor(\r\n        uint256 _target,\r\n        uint256 _startDate,\r\n        uint256 _deadline,\r\n        uint256 _noOfBeneficiary,\r\n        JiwanKoshToken _token\r\n    ) {\r\n        JKT = _token;\r\n        target = _target * (10 ** 18);\r\n        startDate = block.timestamp + _startDate;\r\n        deadline = block.timestamp + _deadline;\r\n        minContribution = 50 * (10 ** 18);\r\n        aidAgency = msg.sender;\r\n        noOfBeneficiary = _noOfBeneficiary;\r\n        claimableFund = target / noOfBeneficiary;\r\n    }\r\n\r\n    function test(uint256 _donationAmount) public returns (address) {\r\n        address _donor = msg.sender;\r\n        claimableFund = _donationAmount;\r\n        return _donor;\r\n    }\r\n\r\n    function donateTokens(uint256 _donationAmount) public {\r\n        address _donor = msg.sender;\r\n        uint256 donationAmount = _donationAmount * (10 ** 18);\r\n        require(\r\n            block.timestamp >= startDate && block.timestamp < deadline,\r\n            \"Donation not active right now\"\r\n        );\r\n        require(donationAmount > minContribution, \"Minimum amount not met!\");\r\n\r\n        if (donors[_donor] == 0) {\r\n            noOfDonors++;\r\n        }\r\n        // JKT.approve(address(this), donationAmount);\r\n        JKT.transferFrom(_donor, address(this), donationAmount);\r\n        donors[_donor] += donationAmount;\r\n        amountCollected += donationAmount;\r\n        emit donationLog(_donor, donationAmount);\r\n    }\r\n\r\n    function contractBalance() public view returns (uint256) {\r\n        return address(this).balance;\r\n    }\r\n\r\n    function refundDonation() public {\r\n        require(\r\n            amountCollected < target,\r\n            \"Target for project met.Cannot be refunded!!\"\r\n        ); //message is incase the require condition is not met\r\n        require(\r\n            deadline < block.timestamp,\r\n            \"Wait until Donation period is Over.\"\r\n        );\r\n        require(donors[msg.sender] > 0);\r\n        address _donor = (msg.sender);\r\n        JKT.transferFrom(address(this), _donor, donors[_donor]);\r\n        donors[msg.sender] = 0;\r\n    }\r\n\r\n    function approveClaimer() public {\r\n        JKT.approve(address(this), claimableFund);\r\n    }\r\n\r\n    function claimBeneficiary() public {\r\n        approveClaimer();\r\n        require(\r\n            deadline < block.timestamp && amountCollected >= target,\r\n            \"Cannot claim yet!!\"\r\n        );\r\n        address claimer = msg.sender;\r\n        bool canClaim = true;\r\n        uint256 lengthOfArray = victims.length;\r\n        for (\r\n            uint256 i;\r\n            i < lengthOfArray;\r\n            i++ //this loop finds the beneficiary from array and then check if they have claimed or not\r\n        ) {\r\n            if (claimer == victims[i]) {\r\n                canClaim = false;\r\n            }\r\n        }\r\n        require(canClaim, \"Already Claimed\");\r\n        JKT.transferFrom(address(this), claimer, claimableFund);\r\n        victims.push(claimer);\r\n        amountCollected -= claimableFund;\r\n        noOfBeneficiary--;\r\n    }\r\n}\r\n",
  "sourcePath": "C:\\Users\\DELL\\Documents\\JIWAN_KOSH_PROJECT\\contracts\\donations.sol",
  "compiler": {
    "name": "solc",
    "version": "0.8.18+commit.87f61d96.Emscripten.clang"
  },
  "schemaVersion": "3.4.12",
  "updatedAt": "2023-04-21T13:23:30.673Z",
  "networkType": "ethereum",
  "devdoc": {
    "kind": "dev",
    "methods": {},
    "version": 1
  },
  "userdoc": {
    "kind": "user",
    "methods": {},
    "version": 1
  }
}