{
  "contractName": "donations",
  "abi": [
    {
      "inputs": [
        {
          "internalType": "uint256",
          "name": "_target",
          "type": "uint256"
        },
        {
          "internalType": "uint256",
          "name": "_startDate",
          "type": "uint256"
        },
        {
          "internalType": "uint256",
          "name": "_deadline",
          "type": "uint256"
        },
        {
          "internalType": "uint256",
          "name": "_noOfBeneficiary",
          "type": "uint256"
        },
        {
          "internalType": "contract JiwanKoshToken",
          "name": "_token",
          "type": "address"
        }
      ],
      "stateMutability": "nonpayable",
      "type": "constructor"
    },
    {
      "anonymous": false,
      "inputs": [
        {
          "indexed": true,
          "internalType": "address",
          "name": "donor",
          "type": "address"
        },
        {
          "indexed": false,
          "internalType": "uint256",
          "name": "donatedAmount",
          "type": "uint256"
        }
      ],
      "name": "donationLog",
      "type": "event"
    },
    {
      "inputs": [],
      "name": "JKT",
      "outputs": [
        {
          "internalType": "contract JiwanKoshToken",
          "name": "",
          "type": "address"
        }
      ],
      "stateMutability": "view",
      "type": "function",
      "constant": true
    },
    {
      "inputs": [],
      "name": "aidAgency",
      "outputs": [
        {
          "internalType": "address",
          "name": "",
          "type": "address"
        }
      ],
      "stateMutability": "view",
      "type": "function",
      "constant": true
    },
    {
      "inputs": [],
      "name": "amountCollected",
      "outputs": [
        {
          "internalType": "uint256",
          "name": "",
          "type": "uint256"
        }
      ],
      "stateMutability": "view",
      "type": "function",
      "constant": true
    },
    {
      "inputs": [],
      "name": "claimableFund",
      "outputs": [
        {
          "internalType": "uint256",
          "name": "",
          "type": "uint256"
        }
      ],
      "stateMutability": "view",
      "type": "function",
      "constant": true
    },
    {
      "inputs": [],
      "name": "deadline",
      "outputs": [
        {
          "internalType": "uint256",
          "name": "",
          "type": "uint256"
        }
      ],
      "stateMutability": "view",
      "type": "function",
      "constant": true
    },
    {
      "inputs": [
        {
          "internalType": "address",
          "name": "",
          "type": "address"
        }
      ],
      "name": "donors",
      "outputs": [
        {
          "internalType": "uint256",
          "name": "",
          "type": "uint256"
        }
      ],
      "stateMutability": "view",
      "type": "function",
      "constant": true
    },
    {
      "inputs": [],
      "name": "minContribution",
      "outputs": [
        {
          "internalType": "uint256",
          "name": "",
          "type": "uint256"
        }
      ],
      "stateMutability": "view",
      "type": "function",
      "constant": true
    },
    {
      "inputs": [],
      "name": "noOfBeneficiary",
      "outputs": [
        {
          "internalType": "uint256",
          "name": "",
          "type": "uint256"
        }
      ],
      "stateMutability": "view",
      "type": "function",
      "constant": true
    },
    {
      "inputs": [],
      "name": "noOfDonors",
      "outputs": [
        {
          "internalType": "uint256",
          "name": "",
          "type": "uint256"
        }
      ],
      "stateMutability": "view",
      "type": "function",
      "constant": true
    },
    {
      "inputs": [],
      "name": "startDate",
      "outputs": [
        {
          "internalType": "uint256",
          "name": "",
          "type": "uint256"
        }
      ],
      "stateMutability": "view",
      "type": "function",
      "constant": true
    },
    {
      "inputs": [],
      "name": "target",
      "outputs": [
        {
          "internalType": "uint256",
          "name": "",
          "type": "uint256"
        }
      ],
      "stateMutability": "view",
      "type": "function",
      "constant": true
    },
    {
      "inputs": [
        {
          "internalType": "uint256",
          "name": "",
          "type": "uint256"
        }
      ],
      "name": "victims",
      "outputs": [
        {
          "internalType": "address",
          "name": "",
          "type": "address"
        }
      ],
      "stateMutability": "view",
      "type": "function",
      "constant": true
    },
    {
      "inputs": [
        {
          "internalType": "uint256",
          "name": "_donationAmount",
          "type": "uint256"
        }
      ],
      "name": "test",
      "outputs": [
        {
          "internalType": "address",
          "name": "",
          "type": "address"
        }
      ],
      "stateMutability": "nonpayable",
      "type": "function"
    },
    {
      "inputs": [
        {
          "internalType": "uint256",
          "name": "_donationAmount",
          "type": "uint256"
        }
      ],
      "name": "donateTokens",
      "outputs": [],
      "stateMutability": "nonpayable",
      "type": "function"
    },
    {
      "inputs": [],
      "name": "contractBalance",
      "outputs": [
        {
          "internalType": "uint256",
          "name": "",
          "type": "uint256"
        }
      ],
      "stateMutability": "view",
      "type": "function",
      "constant": true
    },
    {
      "inputs": [],
      "name": "refundDonation",
      "outputs": [],
      "stateMutability": "nonpayable",
      "type": "function"
    },
    {
      "inputs": [
        {
          "internalType": "uint256",
          "name": "refundAmount",
          "type": "uint256"
        }
      ],
      "name": "approveRefund",
      "outputs": [],
      "stateMutability": "nonpayable",
      "type": "function"
    },
    {
      "inputs": [],
      "name": "approveClaimer",
      "outputs": [],
      "stateMutability": "nonpayable",
      "type": "function"
    },
    {
      "inputs": [],
      "name": "claimBeneficiary",
      "outputs": [],
      "stateMutability": "nonpayable",
      "type": "function"
    }
  ],
  "bytecode": "0x60806040523480156200001157600080fd5b5060405162001793380380620017938339818101604052810190620000379190620001f0565b80600b60006101000a81548173ffffffffffffffffffffffffffffffffffffffff021916908373ffffffffffffffffffffffffffffffffffffffff160217905550670de0b6b3a7640000856200008e9190620002a7565b6002819055508342620000a29190620002f2565b6004819055508242620000b69190620002f2565b6003819055506802b5e3af16b188000060058190555033600160006101000a81548173ffffffffffffffffffffffffffffffffffffffff021916908373ffffffffffffffffffffffffffffffffffffffff160217905550816008819055506008546002546200012691906200035c565b600981905550505050505062000394565b600080fd5b6000819050919050565b62000151816200013c565b81146200015d57600080fd5b50565b600081519050620001718162000146565b92915050565b600073ffffffffffffffffffffffffffffffffffffffff82169050919050565b6000620001a48262000177565b9050919050565b6000620001b88262000197565b9050919050565b620001ca81620001ab565b8114620001d657600080fd5b50565b600081519050620001ea81620001bf565b92915050565b600080600080600060a086880312156200020f576200020e62000137565b5b60006200021f8882890162000160565b9550506020620002328882890162000160565b9450506040620002458882890162000160565b9350506060620002588882890162000160565b92505060806200026b88828901620001d9565b9150509295509295909350565b7f4e487b7100000000000000000000000000000000000000000000000000000000600052601160045260246000fd5b6000620002b4826200013c565b9150620002c1836200013c565b9250828202620002d1816200013c565b91508282048414831517620002eb57620002ea62000278565b5b5092915050565b6000620002ff826200013c565b91506200030c836200013c565b925082820190508082111562000327576200032662000278565b5b92915050565b7f4e487b7100000000000000000000000000000000000000000000000000000000600052601260045260246000fd5b600062000369826200013c565b915062000376836200013c565b9250826200038957620003886200032d565b5b828204905092915050565b6113ef80620003a46000396000f3fe608060405234801561001057600080fd5b50600436106101215760003560e01c806348d89b6b116100ad578063c31f230111610071578063c31f23011461029e578063ca0cdea8146102ba578063d4b83992146102ea578063dafee77d14610308578063dff42bc51461033857610121565b806348d89b6b1461024457806367b65c8c1461024e5780638b7afe2e146102585780638e7651f814610276578063aaffadf31461028057610121565b806329e99f07116100f457806329e99f071461019e578063332f7acf146101ce578063348a71a6146101ec5780633c5456c9146102085780634225bcbe1461022657610121565b80630559400814610126578063076be0a0146101445780630b97bc861461016257806329dcb0cf14610180575b600080fd5b61012e610356565b60405161013b9190610cee565b60405180910390f35b61014c61035c565b6040516101599190610d4a565b60405180910390f35b61016a610382565b6040516101779190610cee565b60405180910390f35b610188610388565b6040516101959190610cee565b60405180910390f35b6101b860048036038101906101b39190610d96565b61038e565b6040516101c59190610d4a565b60405180910390f35b6101d66103a4565b6040516101e39190610cee565b60405180910390f35b61020660048036038101906102019190610d96565b6103aa565b005b61021061044e565b60405161021d9190610e22565b60405180910390f35b61022e610474565b60405161023b9190610cee565b60405180910390f35b61024c61047a565b005b610256610700565b005b610260610949565b60405161026d9190610cee565b60405180910390f35b61027e610951565b005b6102886109f6565b6040516102959190610cee565b60405180910390f35b6102b860048036038101906102b39190610d96565b6109fc565b005b6102d460048036038101906102cf9190610e69565b610c72565b6040516102e19190610cee565b60405180910390f35b6102f2610c8a565b6040516102ff9190610cee565b60405180910390f35b610322600480360381019061031d9190610d96565b610c90565b60405161032f9190610d4a565b60405180910390f35b610340610ccf565b60405161034d9190610cee565b60405180910390f35b60085481565b600160009054906101000a900473ffffffffffffffffffffffffffffffffffffffff1681565b60045481565b60035481565b6000803390508260098190555080915050919050565b60065481565b600b60009054906101000a900473ffffffffffffffffffffffffffffffffffffffff1673ffffffffffffffffffffffffffffffffffffffff1663095ea7b330836040518363ffffffff1660e01b8152600401610407929190610e96565b6020604051808303816000875af1158015610426573d6000803e3d6000fd5b505050506040513d601f19601f8201168201806040525081019061044a9190610ef7565b5050565b600b60009054906101000a900473ffffffffffffffffffffffffffffffffffffffff1681565b60095481565b610482610951565b42600354108015610497575060025460065410155b6104d6576040517f08c379a00000000000000000000000000000000000000000000000000000000081526004016104cd90610f81565b60405180910390fd5b60003390506000600190506000600a80549050905060005b8181101561057f57600a818154811061050a57610509610fa1565b5b9060005260206000200160009054906101000a900473ffffffffffffffffffffffffffffffffffffffff1673ffffffffffffffffffffffffffffffffffffffff168473ffffffffffffffffffffffffffffffffffffffff160361056c57600092505b808061057790610fff565b9150506104ee565b50816105c0576040517f08c379a00000000000000000000000000000000000000000000000000000000081526004016105b790611093565b60405180910390fd5b600b60009054906101000a900473ffffffffffffffffffffffffffffffffffffffff1673ffffffffffffffffffffffffffffffffffffffff166323b872dd30856009546040518463ffffffff1660e01b8152600401610621939291906110b3565b6020604051808303816000875af1158015610640573d6000803e3d6000fd5b505050506040513d601f19601f820116820180604052508101906106649190610ef7565b50600a839080600181540180825580915050600190039060005260206000200160009091909190916101000a81548173ffffffffffffffffffffffffffffffffffffffff021916908373ffffffffffffffffffffffffffffffffffffffff160217905550600954600660008282546106dc91906110ea565b92505081905550600860008154809291906106f69061111e565b9190505550505050565b600033905061074c6000808373ffffffffffffffffffffffffffffffffffffffff1673ffffffffffffffffffffffffffffffffffffffff168152602001908152602001600020546103aa565b60025460065410610792576040517f08c379a0000000000000000000000000000000000000000000000000000000008152600401610789906111b9565b60405180910390fd5b42600354106107d6576040517f08c379a00000000000000000000000000000000000000000000000000000000081526004016107cd9061124b565b60405180910390fd5b60008060003373ffffffffffffffffffffffffffffffffffffffff1673ffffffffffffffffffffffffffffffffffffffff168152602001908152602001600020541161082157600080fd5b600b60009054906101000a900473ffffffffffffffffffffffffffffffffffffffff1673ffffffffffffffffffffffffffffffffffffffff166323b872dd30836000808673ffffffffffffffffffffffffffffffffffffffff1673ffffffffffffffffffffffffffffffffffffffff168152602001908152602001600020546040518463ffffffff1660e01b81526004016108be939291906110b3565b6020604051808303816000875af11580156108dd573d6000803e3d6000fd5b505050506040513d601f19601f820116820180604052508101906109019190610ef7565b5060008060003373ffffffffffffffffffffffffffffffffffffffff1673ffffffffffffffffffffffffffffffffffffffff1681526020019081526020016000208190555050565b600047905090565b600b60009054906101000a900473ffffffffffffffffffffffffffffffffffffffff1673ffffffffffffffffffffffffffffffffffffffff1663095ea7b3306009546040518363ffffffff1660e01b81526004016109b0929190610e96565b6020604051808303816000875af11580156109cf573d6000803e3d6000fd5b505050506040513d601f19601f820116820180604052508101906109f39190610ef7565b50565b60055481565b60003390506000670de0b6b3a764000083610a17919061126b565b90506004544210158015610a2c575060035442105b610a6b576040517f08c379a0000000000000000000000000000000000000000000000000000000008152600401610a62906112f9565b60405180910390fd5b6005548111610aaf576040517f08c379a0000000000000000000000000000000000000000000000000000000008152600401610aa690611365565b60405180910390fd5b60008060008473ffffffffffffffffffffffffffffffffffffffff1673ffffffffffffffffffffffffffffffffffffffff1681526020019081526020016000205403610b0e5760076000815480929190610b0890610fff565b91905055505b600b60009054906101000a900473ffffffffffffffffffffffffffffffffffffffff1673ffffffffffffffffffffffffffffffffffffffff166323b872dd8330846040518463ffffffff1660e01b8152600401610b6d939291906110b3565b6020604051808303816000875af1158015610b8c573d6000803e3d6000fd5b505050506040513d601f19601f82011682018060405250810190610bb09190610ef7565b50806000808473ffffffffffffffffffffffffffffffffffffffff1673ffffffffffffffffffffffffffffffffffffffff1681526020019081526020016000206000828254610bff9190611385565b925050819055508060066000828254610c189190611385565b925050819055508173ffffffffffffffffffffffffffffffffffffffff167f22682b30fa411bb81f550af7c3ee5878ae5aecfb5a591c42fcfe89dad670495382604051610c659190610cee565b60405180910390a2505050565b60006020528060005260406000206000915090505481565b60025481565b600a8181548110610ca057600080fd5b906000526020600020016000915054906101000a900473ffffffffffffffffffffffffffffffffffffffff1681565b60075481565b6000819050919050565b610ce881610cd5565b82525050565b6000602082019050610d036000830184610cdf565b92915050565b600073ffffffffffffffffffffffffffffffffffffffff82169050919050565b6000610d3482610d09565b9050919050565b610d4481610d29565b82525050565b6000602082019050610d5f6000830184610d3b565b92915050565b600080fd5b610d7381610cd5565b8114610d7e57600080fd5b50565b600081359050610d9081610d6a565b92915050565b600060208284031215610dac57610dab610d65565b5b6000610dba84828501610d81565b91505092915050565b6000819050919050565b6000610de8610de3610dde84610d09565b610dc3565b610d09565b9050919050565b6000610dfa82610dcd565b9050919050565b6000610e0c82610def565b9050919050565b610e1c81610e01565b82525050565b6000602082019050610e376000830184610e13565b92915050565b610e4681610d29565b8114610e5157600080fd5b50565b600081359050610e6381610e3d565b92915050565b600060208284031215610e7f57610e7e610d65565b5b6000610e8d84828501610e54565b91505092915050565b6000604082019050610eab6000830185610d3b565b610eb86020830184610cdf565b9392505050565b60008115159050919050565b610ed481610ebf565b8114610edf57600080fd5b50565b600081519050610ef181610ecb565b92915050565b600060208284031215610f0d57610f0c610d65565b5b6000610f1b84828501610ee2565b91505092915050565b600082825260208201905092915050565b7f43616e6e6f7420636c61696d2079657421210000000000000000000000000000600082015250565b6000610f6b601283610f24565b9150610f7682610f35565b602082019050919050565b60006020820190508181036000830152610f9a81610f5e565b9050919050565b7f4e487b7100000000000000000000000000000000000000000000000000000000600052603260045260246000fd5b7f4e487b7100000000000000000000000000000000000000000000000000000000600052601160045260246000fd5b600061100a82610cd5565b91507fffffffffffffffffffffffffffffffffffffffffffffffffffffffffffffffff820361103c5761103b610fd0565b5b600182019050919050565b7f416c726561647920436c61696d65640000000000000000000000000000000000600082015250565b600061107d600f83610f24565b915061108882611047565b602082019050919050565b600060208201905081810360008301526110ac81611070565b9050919050565b60006060820190506110c86000830186610d3b565b6110d56020830185610d3b565b6110e26040830184610cdf565b949350505050565b60006110f582610cd5565b915061110083610cd5565b925082820390508181111561111857611117610fd0565b5b92915050565b600061112982610cd5565b91506000820361113c5761113b610fd0565b5b600182039050919050565b7f54617267657420666f722070726f6a656374206d65742e43616e6e6f7420626560008201527f20726566756e6465642121000000000000000000000000000000000000000000602082015250565b60006111a3602b83610f24565b91506111ae82611147565b604082019050919050565b600060208201905081810360008301526111d281611196565b9050919050565b7f5761697420756e74696c20446f6e6174696f6e20706572696f64206973204f7660008201527f65722e0000000000000000000000000000000000000000000000000000000000602082015250565b6000611235602383610f24565b9150611240826111d9565b604082019050919050565b6000602082019050818103600083015261126481611228565b9050919050565b600061127682610cd5565b915061128183610cd5565b925082820261128f81610cd5565b915082820484148315176112a6576112a5610fd0565b5b5092915050565b7f446f6e6174696f6e206e6f7420616374697665207269676874206e6f77000000600082015250565b60006112e3601d83610f24565b91506112ee826112ad565b602082019050919050565b60006020820190508181036000830152611312816112d6565b9050919050565b7f4d696e696d756d20616d6f756e74206e6f74206d657421000000000000000000600082015250565b600061134f601783610f24565b915061135a82611319565b602082019050919050565b6000602082019050818103600083015261137e81611342565b9050919050565b600061139082610cd5565b915061139b83610cd5565b92508282019050808211156113b3576113b2610fd0565b5b9291505056fea2646970667358221220f6148039a56fd8a17eeb61d0163f039f45c1f6be2ac2934b31cbe920ae24855c64736f6c63430008120033",
  "immutableReferences": {},
  "source": "//SPDX-License-Identifier: GPL-0.3.0\r\n\r\npragma solidity ^0.8.0;\r\n\r\nimport \"./JiwanKoshToken.sol\";\r\n\r\ncontract donations {\r\n    mapping(address => uint256) public donors;\r\n    address public aidAgency;\r\n    uint256 public target;\r\n    uint256 public deadline;\r\n    uint256 public startDate;\r\n    uint256 public minContribution;\r\n    uint256 public amountCollected;\r\n    uint256 public noOfDonors;\r\n    uint256 public noOfBeneficiary;\r\n    uint256 public claimableFund;\r\n    address[] public victims;\r\n    JiwanKoshToken public JKT;\r\n\r\n    event donationLog(address indexed donor, uint256 donatedAmount);\r\n\r\n    constructor(\r\n        uint256 _target,\r\n        uint256 _startDate,\r\n        uint256 _deadline,\r\n        uint256 _noOfBeneficiary,\r\n        JiwanKoshToken _token\r\n    ) {\r\n        JKT = _token;\r\n        target = _target * (10 ** 18);\r\n        startDate = block.timestamp + _startDate;\r\n        deadline = block.timestamp + _deadline;\r\n        minContribution = 50 * (10 ** 18);\r\n        aidAgency = msg.sender;\r\n        noOfBeneficiary = _noOfBeneficiary;\r\n        claimableFund = target / noOfBeneficiary;\r\n    }\r\n\r\n    function test(uint256 _donationAmount) public returns (address) {\r\n        address _donor = msg.sender;\r\n        claimableFund = _donationAmount;\r\n        return _donor;\r\n    }\r\n\r\n    function donateTokens(uint256 _donationAmount) public {\r\n        address _donor = msg.sender;\r\n        uint256 donationAmount = _donationAmount * (10 ** 18);\r\n        require(\r\n            block.timestamp >= startDate && block.timestamp < deadline,\r\n            \"Donation not active right now\"\r\n        );\r\n        require(donationAmount > minContribution, \"Minimum amount not met!\");\r\n\r\n        if (donors[_donor] == 0) {\r\n            noOfDonors++;\r\n        }\r\n        // JKT.approve(address(this), donationAmount);\r\n        JKT.transferFrom(_donor, address(this), donationAmount);\r\n        donors[_donor] += donationAmount;\r\n        amountCollected += donationAmount;\r\n        emit donationLog(_donor, donationAmount);\r\n    }\r\n\r\n    function contractBalance() public view returns (uint256) {\r\n        return address(this).balance;\r\n    }\r\n\r\n    function refundDonation() public {\r\n        address _donor = (msg.sender);\r\n        approveRefund(donors[_donor]);\r\n        require(\r\n            amountCollected < target,\r\n            \"Target for project met.Cannot be refunded!!\"\r\n        ); //message is incase the require condition is not met\r\n        require(\r\n            deadline < block.timestamp,\r\n            \"Wait until Donation period is Over.\"\r\n        );\r\n        require(donors[msg.sender] > 0);\r\n        JKT.transferFrom(address(this), _donor, donors[_donor]);\r\n        donors[msg.sender] = 0;\r\n    }\r\n\r\n    function approveRefund(uint refundAmount) public {\r\n        JKT.approve(address(this), refundAmount);\r\n    }\r\n\r\n    function approveClaimer() public {\r\n        JKT.approve(address(this), claimableFund);\r\n    }\r\n\r\n    function claimBeneficiary() public {\r\n        approveClaimer();\r\n        require(\r\n            deadline < block.timestamp && amountCollected >= target,\r\n            \"Cannot claim yet!!\"\r\n        );\r\n        address claimer = msg.sender;\r\n        bool canClaim = true;\r\n        uint256 lengthOfArray = victims.length;\r\n        for (\r\n            uint256 i;\r\n            i < lengthOfArray;\r\n            i++ //this loop finds the beneficiary from array and then check if they have claimed or not\r\n        ) {\r\n            if (claimer == victims[i]) {\r\n                canClaim = false;\r\n            }\r\n        }\r\n        require(canClaim, \"Already Claimed\");\r\n        JKT.transferFrom(address(this), claimer, claimableFund);\r\n        victims.push(claimer);\r\n        amountCollected -= claimableFund;\r\n        noOfBeneficiary--;\r\n    }\r\n}\r\n",
  "sourcePath": "C:\\Users\\DELL\\Documents\\JIWAN_KOSH_PROJECT\\contracts\\donations.sol",
  "compiler": {
    "name": "solc",
    "version": "0.8.18+commit.87f61d96.Emscripten.clang"
  },
  "schemaVersion": "3.4.12",
  "updatedAt": "2023-04-21T17:14:21.475Z",
  "networkType": "ethereum",
  "devdoc": {
    "kind": "dev",
    "methods": {},
    "version": 1
  },
  "userdoc": {
    "kind": "user",
    "methods": {},
    "version": 1
  }
}