{
  "contractName": "JiwanKoshToken",
  "abi": [
    {
      "inputs": [],
      "stateMutability": "nonpayable",
      "type": "constructor"
    },
    {
      "anonymous": false,
      "inputs": [
        {
          "indexed": true,
          "internalType": "address",
          "name": "owner",
          "type": "address"
        },
        {
          "indexed": true,
          "internalType": "address",
          "name": "spender",
          "type": "address"
        },
        {
          "indexed": false,
          "internalType": "uint256",
          "name": "value",
          "type": "uint256"
        }
      ],
      "name": "Approval",
      "type": "event"
    },
    {
      "anonymous": false,
      "inputs": [
        {
          "indexed": true,
          "internalType": "address",
          "name": "from",
          "type": "address"
        },
        {
          "indexed": true,
          "internalType": "address",
          "name": "to",
          "type": "address"
        },
        {
          "indexed": false,
          "internalType": "uint256",
          "name": "value",
          "type": "uint256"
        }
      ],
      "name": "Transfer",
      "type": "event"
    },
    {
      "inputs": [
        {
          "internalType": "address",
          "name": "owner",
          "type": "address"
        },
        {
          "internalType": "address",
          "name": "spender",
          "type": "address"
        }
      ],
      "name": "allowance",
      "outputs": [
        {
          "internalType": "uint256",
          "name": "",
          "type": "uint256"
        }
      ],
      "stateMutability": "view",
      "type": "function"
    },
    {
      "inputs": [
        {
          "internalType": "address",
          "name": "spender",
          "type": "address"
        },
        {
          "internalType": "uint256",
          "name": "amount",
          "type": "uint256"
        }
      ],
      "name": "approve",
      "outputs": [
        {
          "internalType": "bool",
          "name": "",
          "type": "bool"
        }
      ],
      "stateMutability": "nonpayable",
      "type": "function"
    },
    {
      "inputs": [
        {
          "internalType": "address",
          "name": "account",
          "type": "address"
        }
      ],
      "name": "balanceOf",
      "outputs": [
        {
          "internalType": "uint256",
          "name": "",
          "type": "uint256"
        }
      ],
      "stateMutability": "view",
      "type": "function"
    },
    {
      "inputs": [],
      "name": "decimals",
      "outputs": [
        {
          "internalType": "uint8",
          "name": "",
          "type": "uint8"
        }
      ],
      "stateMutability": "view",
      "type": "function"
    },
    {
      "inputs": [
        {
          "internalType": "address",
          "name": "spender",
          "type": "address"
        },
        {
          "internalType": "uint256",
          "name": "subtractedValue",
          "type": "uint256"
        }
      ],
      "name": "decreaseAllowance",
      "outputs": [
        {
          "internalType": "bool",
          "name": "",
          "type": "bool"
        }
      ],
      "stateMutability": "nonpayable",
      "type": "function"
    },
    {
      "inputs": [
        {
          "internalType": "address",
          "name": "spender",
          "type": "address"
        },
        {
          "internalType": "uint256",
          "name": "addedValue",
          "type": "uint256"
        }
      ],
      "name": "increaseAllowance",
      "outputs": [
        {
          "internalType": "bool",
          "name": "",
          "type": "bool"
        }
      ],
      "stateMutability": "nonpayable",
      "type": "function"
    },
    {
      "inputs": [],
      "name": "name",
      "outputs": [
        {
          "internalType": "string",
          "name": "",
          "type": "string"
        }
      ],
      "stateMutability": "view",
      "type": "function"
    },
    {
      "inputs": [],
      "name": "owner",
      "outputs": [
        {
          "internalType": "address",
          "name": "",
          "type": "address"
        }
      ],
      "stateMutability": "view",
      "type": "function"
    },
    {
      "inputs": [],
      "name": "symbol",
      "outputs": [
        {
          "internalType": "string",
          "name": "",
          "type": "string"
        }
      ],
      "stateMutability": "view",
      "type": "function"
    },
    {
      "inputs": [],
      "name": "totalSupply",
      "outputs": [
        {
          "internalType": "uint256",
          "name": "",
          "type": "uint256"
        }
      ],
      "stateMutability": "view",
      "type": "function"
    },
    {
      "inputs": [
        {
          "internalType": "address",
          "name": "to",
          "type": "address"
        },
        {
          "internalType": "uint256",
          "name": "amount",
          "type": "uint256"
        }
      ],
      "name": "transfer",
      "outputs": [
        {
          "internalType": "bool",
          "name": "",
          "type": "bool"
        }
      ],
      "stateMutability": "nonpayable",
      "type": "function"
    },
    {
      "inputs": [
        {
          "internalType": "address",
          "name": "from",
          "type": "address"
        },
        {
          "internalType": "address",
          "name": "to",
          "type": "address"
        },
        {
          "internalType": "uint256",
          "name": "amount",
          "type": "uint256"
        }
      ],
      "name": "transferFrom",
      "outputs": [
        {
          "internalType": "bool",
          "name": "",
          "type": "bool"
        }
      ],
      "stateMutability": "nonpayable",
      "type": "function"
    },
    {
      "inputs": [],
      "name": "mint",
      "outputs": [],
      "stateMutability": "nonpayable",
      "type": "function"
    }
  ],
  "bytecode": "0x60806040523480156200001157600080fd5b506040518060400160405280600e81526020017f4a6977616e4b6f7368546f6b656e0000000000000000000000000000000000008152506040518060400160405280600381526020017f4a4b54000000000000000000000000000000000000000000000000000000000081525081600390816200008f919062000546565b508060049081620000a1919062000546565b50505033600560006101000a81548173ffffffffffffffffffffffffffffffffffffffff021916908373ffffffffffffffffffffffffffffffffffffffff16021790555062000146600560009054906101000a900473ffffffffffffffffffffffffffffffffffffffff166200011c6200014c60201b60201c565b600a6200012a9190620007bd565b624c4b406200013a91906200080e565b6200015560201b60201c565b62000945565b60006012905090565b600073ffffffffffffffffffffffffffffffffffffffff168273ffffffffffffffffffffffffffffffffffffffff1603620001c7576040517f08c379a0000000000000000000000000000000000000000000000000000000008152600401620001be90620008ba565b60405180910390fd5b620001db60008383620002c260201b60201c565b8060026000828254620001ef9190620008dc565b92505081905550806000808473ffffffffffffffffffffffffffffffffffffffff1673ffffffffffffffffffffffffffffffffffffffff168152602001908152602001600020600082825401925050819055508173ffffffffffffffffffffffffffffffffffffffff16600073ffffffffffffffffffffffffffffffffffffffff167fddf252ad1be2c89b69c2b068fc378daa952ba7f163c4a11628f55a4df523b3ef83604051620002a2919062000928565b60405180910390a3620002be60008383620002c760201b60201c565b5050565b505050565b505050565b600081519050919050565b7f4e487b7100000000000000000000000000000000000000000000000000000000600052604160045260246000fd5b7f4e487b7100000000000000000000000000000000000000000000000000000000600052602260045260246000fd5b600060028204905060018216806200034e57607f821691505b60208210810362000364576200036362000306565b5b50919050565b60008190508160005260206000209050919050565b60006020601f8301049050919050565b600082821b905092915050565b600060088302620003ce7fffffffffffffffffffffffffffffffffffffffffffffffffffffffffffffffff826200038f565b620003da86836200038f565b95508019841693508086168417925050509392505050565b6000819050919050565b6000819050919050565b600062000427620004216200041b84620003f2565b620003fc565b620003f2565b9050919050565b6000819050919050565b620004438362000406565b6200045b62000452826200042e565b8484546200039c565b825550505050565b600090565b6200047262000463565b6200047f81848462000438565b505050565b5b81811015620004a7576200049b60008262000468565b60018101905062000485565b5050565b601f821115620004f657620004c0816200036a565b620004cb846200037f565b81016020851015620004db578190505b620004f3620004ea856200037f565b83018262000484565b50505b505050565b600082821c905092915050565b60006200051b60001984600802620004fb565b1980831691505092915050565b600062000536838362000508565b9150826002028217905092915050565b6200055182620002cc565b67ffffffffffffffff8111156200056d576200056c620002d7565b5b62000579825462000335565b62000586828285620004ab565b600060209050601f831160018114620005be5760008415620005a9578287015190505b620005b5858262000528565b86555062000625565b601f198416620005ce866200036a565b60005b82811015620005f857848901518255600182019150602085019450602081019050620005d1565b8683101562000618578489015162000614601f89168262000508565b8355505b6001600288020188555050505b505050505050565b7f4e487b7100000000000000000000000000000000000000000000000000000000600052601160045260246000fd5b60008160011c9050919050565b6000808291508390505b6001851115620006bb578086048111156200069357620006926200062d565b5b6001851615620006a35780820291505b8081029050620006b3856200065c565b945062000673565b94509492505050565b600082620006d65760019050620007a9565b81620006e65760009050620007a9565b8160018114620006ff57600281146200070a5762000740565b6001915050620007a9565b60ff8411156200071f576200071e6200062d565b5b8360020a9150848211156200073957620007386200062d565b5b50620007a9565b5060208310610133831016604e8410600b84101617156200077a5782820a9050838111156200077457620007736200062d565b5b620007a9565b62000789848484600162000669565b92509050818404811115620007a357620007a26200062d565b5b81810290505b9392505050565b600060ff82169050919050565b6000620007ca82620003f2565b9150620007d783620007b0565b9250620008067fffffffffffffffffffffffffffffffffffffffffffffffffffffffffffffffff8484620006c4565b905092915050565b60006200081b82620003f2565b91506200082883620003f2565b92508282026200083881620003f2565b915082820484148315176200085257620008516200062d565b5b5092915050565b600082825260208201905092915050565b7f45524332303a206d696e7420746f20746865207a65726f206164647265737300600082015250565b6000620008a2601f8362000859565b9150620008af826200086a565b602082019050919050565b60006020820190508181036000830152620008d58162000893565b9050919050565b6000620008e982620003f2565b9150620008f683620003f2565b92508282019050808211156200091157620009106200062d565b5b92915050565b6200092281620003f2565b82525050565b60006020820190506200093f600083018462000917565b92915050565b6117c080620009556000396000f3fe608060405234801561001057600080fd5b50600436106100cf5760003560e01c8063395093511161008c57806395d89b411161006657806395d89b4114610216578063a457c2d714610234578063a9059cbb14610264578063dd62ed3e14610294576100cf565b8063395093511461019857806370a08231146101c85780638da5cb5b146101f8576100cf565b806306fdde03146100d4578063095ea7b3146100f25780631249c58b1461012257806318160ddd1461012c57806323b872dd1461014a578063313ce5671461017a575b600080fd5b6100dc6102c4565b6040516100e99190610db5565b60405180910390f35b61010c60048036038101906101079190610e70565b610356565b6040516101199190610ecb565b60405180910390f35b61012a610379565b005b610134610458565b6040516101419190610ef5565b60405180910390f35b610164600480360381019061015f9190610f10565b610462565b6040516101719190610ecb565b60405180910390f35b610182610491565b60405161018f9190610f7f565b60405180910390f35b6101b260048036038101906101ad9190610e70565b61049a565b6040516101bf9190610ecb565b60405180910390f35b6101e260048036038101906101dd9190610f9a565b6104d1565b6040516101ef9190610ef5565b60405180910390f35b610200610519565b60405161020d9190610fd6565b60405180910390f35b61021e61053f565b60405161022b9190610db5565b60405180910390f35b61024e60048036038101906102499190610e70565b6105d1565b60405161025b9190610ecb565b60405180910390f35b61027e60048036038101906102799190610e70565b610648565b60405161028b9190610ecb565b60405180910390f35b6102ae60048036038101906102a99190610ff1565b61066b565b6040516102bb9190610ef5565b60405180910390f35b6060600380546102d390611060565b80601f01602080910402602001604051908101604052809291908181526020018280546102ff90611060565b801561034c5780601f106103215761010080835404028352916020019161034c565b820191906000526020600020905b81548152906001019060200180831161032f57829003601f168201915b5050505050905090565b6000806103616106f2565b905061036e8185856106fa565b600191505092915050565b600560009054906101000a900473ffffffffffffffffffffffffffffffffffffffff1673ffffffffffffffffffffffffffffffffffffffff163373ffffffffffffffffffffffffffffffffffffffff1614610409576040517f08c379a000000000000000000000000000000000000000000000000000000000815260040161040090611103565b60405180910390fd5b610456600560009054906101000a900473ffffffffffffffffffffffffffffffffffffffff16610437610491565b600a6104439190611285565b6298968061045191906112d0565b6108c3565b565b6000600254905090565b60008061046d6106f2565b905061047a858285610a19565b610485858585610aa5565b60019150509392505050565b60006012905090565b6000806104a56106f2565b90506104c68185856104b7858961066b565b6104c19190611312565b6106fa565b600191505092915050565b60008060008373ffffffffffffffffffffffffffffffffffffffff1673ffffffffffffffffffffffffffffffffffffffff168152602001908152602001600020549050919050565b600560009054906101000a900473ffffffffffffffffffffffffffffffffffffffff1681565b60606004805461054e90611060565b80601f016020809104026020016040519081016040528092919081815260200182805461057a90611060565b80156105c75780601f1061059c576101008083540402835291602001916105c7565b820191906000526020600020905b8154815290600101906020018083116105aa57829003601f168201915b5050505050905090565b6000806105dc6106f2565b905060006105ea828661066b565b90508381101561062f576040517f08c379a0000000000000000000000000000000000000000000000000000000008152600401610626906113b8565b60405180910390fd5b61063c82868684036106fa565b60019250505092915050565b6000806106536106f2565b9050610660818585610aa5565b600191505092915050565b6000600160008473ffffffffffffffffffffffffffffffffffffffff1673ffffffffffffffffffffffffffffffffffffffff16815260200190815260200160002060008373ffffffffffffffffffffffffffffffffffffffff1673ffffffffffffffffffffffffffffffffffffffff16815260200190815260200160002054905092915050565b600033905090565b600073ffffffffffffffffffffffffffffffffffffffff168373ffffffffffffffffffffffffffffffffffffffff1603610769576040517f08c379a00000000000000000000000000000000000000000000000000000000081526004016107609061144a565b60405180910390fd5b600073ffffffffffffffffffffffffffffffffffffffff168273ffffffffffffffffffffffffffffffffffffffff16036107d8576040517f08c379a00000000000000000000000000000000000000000000000000000000081526004016107cf906114dc565b60405180910390fd5b80600160008573ffffffffffffffffffffffffffffffffffffffff1673ffffffffffffffffffffffffffffffffffffffff16815260200190815260200160002060008473ffffffffffffffffffffffffffffffffffffffff1673ffffffffffffffffffffffffffffffffffffffff168152602001908152602001600020819055508173ffffffffffffffffffffffffffffffffffffffff168373ffffffffffffffffffffffffffffffffffffffff167f8c5be1e5ebec7d5bd14f71427d1e84f3dd0314c0f7b2291e5b200ac8c7c3b925836040516108b69190610ef5565b60405180910390a3505050565b600073ffffffffffffffffffffffffffffffffffffffff168273ffffffffffffffffffffffffffffffffffffffff1603610932576040517f08c379a000000000000000000000000000000000000000000000000000000000815260040161092990611548565b60405180910390fd5b61093e60008383610d1b565b80600260008282546109509190611312565b92505081905550806000808473ffffffffffffffffffffffffffffffffffffffff1673ffffffffffffffffffffffffffffffffffffffff168152602001908152602001600020600082825401925050819055508173ffffffffffffffffffffffffffffffffffffffff16600073ffffffffffffffffffffffffffffffffffffffff167fddf252ad1be2c89b69c2b068fc378daa952ba7f163c4a11628f55a4df523b3ef83604051610a019190610ef5565b60405180910390a3610a1560008383610d20565b5050565b6000610a25848461066b565b90507fffffffffffffffffffffffffffffffffffffffffffffffffffffffffffffffff8114610a9f5781811015610a91576040517f08c379a0000000000000000000000000000000000000000000000000000000008152600401610a88906115b4565b60405180910390fd5b610a9e84848484036106fa565b5b50505050565b600073ffffffffffffffffffffffffffffffffffffffff168373ffffffffffffffffffffffffffffffffffffffff1603610b14576040517f08c379a0000000000000000000000000000000000000000000000000000000008152600401610b0b90611646565b60405180910390fd5b600073ffffffffffffffffffffffffffffffffffffffff168273ffffffffffffffffffffffffffffffffffffffff1603610b83576040517f08c379a0000000000000000000000000000000000000000000000000000000008152600401610b7a906116d8565b60405180910390fd5b610b8e838383610d1b565b60008060008573ffffffffffffffffffffffffffffffffffffffff1673ffffffffffffffffffffffffffffffffffffffff16815260200190815260200160002054905081811015610c14576040517f08c379a0000000000000000000000000000000000000000000000000000000008152600401610c0b9061176a565b60405180910390fd5b8181036000808673ffffffffffffffffffffffffffffffffffffffff1673ffffffffffffffffffffffffffffffffffffffff16815260200190815260200160002081905550816000808573ffffffffffffffffffffffffffffffffffffffff1673ffffffffffffffffffffffffffffffffffffffff168152602001908152602001600020600082825401925050819055508273ffffffffffffffffffffffffffffffffffffffff168473ffffffffffffffffffffffffffffffffffffffff167fddf252ad1be2c89b69c2b068fc378daa952ba7f163c4a11628f55a4df523b3ef84604051610d029190610ef5565b60405180910390a3610d15848484610d20565b50505050565b505050565b505050565b600081519050919050565b600082825260208201905092915050565b60005b83811015610d5f578082015181840152602081019050610d44565b60008484015250505050565b6000601f19601f8301169050919050565b6000610d8782610d25565b610d918185610d30565b9350610da1818560208601610d41565b610daa81610d6b565b840191505092915050565b60006020820190508181036000830152610dcf8184610d7c565b905092915050565b600080fd5b600073ffffffffffffffffffffffffffffffffffffffff82169050919050565b6000610e0782610ddc565b9050919050565b610e1781610dfc565b8114610e2257600080fd5b50565b600081359050610e3481610e0e565b92915050565b6000819050919050565b610e4d81610e3a565b8114610e5857600080fd5b50565b600081359050610e6a81610e44565b92915050565b60008060408385031215610e8757610e86610dd7565b5b6000610e9585828601610e25565b9250506020610ea685828601610e5b565b9150509250929050565b60008115159050919050565b610ec581610eb0565b82525050565b6000602082019050610ee06000830184610ebc565b92915050565b610eef81610e3a565b82525050565b6000602082019050610f0a6000830184610ee6565b92915050565b600080600060608486031215610f2957610f28610dd7565b5b6000610f3786828701610e25565b9350506020610f4886828701610e25565b9250506040610f5986828701610e5b565b9150509250925092565b600060ff82169050919050565b610f7981610f63565b82525050565b6000602082019050610f946000830184610f70565b92915050565b600060208284031215610fb057610faf610dd7565b5b6000610fbe84828501610e25565b91505092915050565b610fd081610dfc565b82525050565b6000602082019050610feb6000830184610fc7565b92915050565b6000806040838503121561100857611007610dd7565b5b600061101685828601610e25565b925050602061102785828601610e25565b9150509250929050565b7f4e487b7100000000000000000000000000000000000000000000000000000000600052602260045260246000fd5b6000600282049050600182168061107857607f821691505b60208210810361108b5761108a611031565b5b50919050565b7f4f6e6c792061646d696e2063616e2063616c6c20746869732066756e6374696f60008201527f6e00000000000000000000000000000000000000000000000000000000000000602082015250565b60006110ed602183610d30565b91506110f882611091565b604082019050919050565b6000602082019050818103600083015261111c816110e0565b9050919050565b7f4e487b7100000000000000000000000000000000000000000000000000000000600052601160045260246000fd5b60008160011c9050919050565b6000808291508390505b60018511156111a95780860481111561118557611184611123565b5b60018516156111945780820291505b80810290506111a285611152565b9450611169565b94509492505050565b6000826111c2576001905061127e565b816111d0576000905061127e565b81600181146111e657600281146111f05761121f565b600191505061127e565b60ff84111561120257611201611123565b5b8360020a91508482111561121957611218611123565b5b5061127e565b5060208310610133831016604e8410600b84101617156112545782820a90508381111561124f5761124e611123565b5b61127e565b611261848484600161115f565b9250905081840481111561127857611277611123565b5b81810290505b9392505050565b600061129082610e3a565b915061129b83610f63565b92506112c87fffffffffffffffffffffffffffffffffffffffffffffffffffffffffffffffff84846111b2565b905092915050565b60006112db82610e3a565b91506112e683610e3a565b92508282026112f481610e3a565b9150828204841483151761130b5761130a611123565b5b5092915050565b600061131d82610e3a565b915061132883610e3a565b92508282019050808211156113405761133f611123565b5b92915050565b7f45524332303a2064656372656173656420616c6c6f77616e63652062656c6f7760008201527f207a65726f000000000000000000000000000000000000000000000000000000602082015250565b60006113a2602583610d30565b91506113ad82611346565b604082019050919050565b600060208201905081810360008301526113d181611395565b9050919050565b7f45524332303a20617070726f76652066726f6d20746865207a65726f2061646460008201527f7265737300000000000000000000000000000000000000000000000000000000602082015250565b6000611434602483610d30565b915061143f826113d8565b604082019050919050565b6000602082019050818103600083015261146381611427565b9050919050565b7f45524332303a20617070726f766520746f20746865207a65726f20616464726560008201527f7373000000000000000000000000000000000000000000000000000000000000602082015250565b60006114c6602283610d30565b91506114d18261146a565b604082019050919050565b600060208201905081810360008301526114f5816114b9565b9050919050565b7f45524332303a206d696e7420746f20746865207a65726f206164647265737300600082015250565b6000611532601f83610d30565b915061153d826114fc565b602082019050919050565b6000602082019050818103600083015261156181611525565b9050919050565b7f45524332303a20696e73756666696369656e7420616c6c6f77616e6365000000600082015250565b600061159e601d83610d30565b91506115a982611568565b602082019050919050565b600060208201905081810360008301526115cd81611591565b9050919050565b7f45524332303a207472616e736665722066726f6d20746865207a65726f20616460008201527f6472657373000000000000000000000000000000000000000000000000000000602082015250565b6000611630602583610d30565b915061163b826115d4565b604082019050919050565b6000602082019050818103600083015261165f81611623565b9050919050565b7f45524332303a207472616e7366657220746f20746865207a65726f206164647260008201527f6573730000000000000000000000000000000000000000000000000000000000602082015250565b60006116c2602383610d30565b91506116cd82611666565b604082019050919050565b600060208201905081810360008301526116f1816116b5565b9050919050565b7f45524332303a207472616e7366657220616d6f756e742065786365656473206260008201527f616c616e63650000000000000000000000000000000000000000000000000000602082015250565b6000611754602683610d30565b915061175f826116f8565b604082019050919050565b6000602082019050818103600083015261178381611747565b905091905056fea26469706673582212206c6dd2cb2ebd53a863c5141289ddc0044073e92c58e12d9f1a82478a99b2a86b64736f6c63430008120033",
  "immutableReferences": {},
  "source": "//SPDX-License-Identifier: GPL-0.3.0\r\npragma solidity ^0.8.17;\r\n\r\nimport \"../node_modules/@openzeppelin/contracts/token/ERC20/ERC20.sol\";\r\n\r\n\r\ncontract JiwanKoshToken is ERC20\r\n{\r\n    address public owner;\r\n\r\n    constructor() ERC20(\"JiwanKoshToken\",\"JKT\")\r\n    {\r\n        owner=(msg.sender);\r\n        _mint(owner,5000000*(10**decimals())); \r\n    }\r\n    function mint() public onlyOwner{\r\n        _mint(owner,10000000*(10**decimals()));\r\n    }\r\n\r\n    modifier onlyOwner{\r\n        require(msg.sender==owner,\"Only admin can call this function\");\r\n        _;\r\n    }\r\n\r\n}\r\n",
  "sourcePath": "C:\\Users\\DELL\\Documents\\JIWAN_KOSH_PROJECT\\contracts\\JiwanKoshToken.sol",
  "compiler": {
    "name": "solc",
    "version": "0.8.18+commit.87f61d96.Emscripten.clang"
  },
  "schemaVersion": "3.4.12",
  "updatedAt": "2023-04-21T13:23:26.400Z",
  "devdoc": {
    "events": {
      "Approval(address,address,uint256)": {
        "details": "Emitted when the allowance of a `spender` for an `owner` is set by a call to {approve}. `value` is the new allowance."
      },
      "Transfer(address,address,uint256)": {
        "details": "Emitted when `value` tokens are moved from one account (`from`) to another (`to`). Note that `value` may be zero."
      }
    },
    "kind": "dev",
    "methods": {
      "allowance(address,address)": {
        "details": "See {IERC20-allowance}."
      },
      "approve(address,uint256)": {
        "details": "See {IERC20-approve}. NOTE: If `amount` is the maximum `uint256`, the allowance is not updated on `transferFrom`. This is semantically equivalent to an infinite approval. Requirements: - `spender` cannot be the zero address."
      },
      "balanceOf(address)": {
        "details": "See {IERC20-balanceOf}."
      },
      "decimals()": {
        "details": "Returns the number of decimals used to get its user representation. For example, if `decimals` equals `2`, a balance of `505` tokens should be displayed to a user as `5.05` (`505 / 10 ** 2`). Tokens usually opt for a value of 18, imitating the relationship between Ether and Wei. This is the value {ERC20} uses, unless this function is overridden; NOTE: This information is only used for _display_ purposes: it in no way affects any of the arithmetic of the contract, including {IERC20-balanceOf} and {IERC20-transfer}."
      },
      "decreaseAllowance(address,uint256)": {
        "details": "Atomically decreases the allowance granted to `spender` by the caller. This is an alternative to {approve} that can be used as a mitigation for problems described in {IERC20-approve}. Emits an {Approval} event indicating the updated allowance. Requirements: - `spender` cannot be the zero address. - `spender` must have allowance for the caller of at least `subtractedValue`."
      },
      "increaseAllowance(address,uint256)": {
        "details": "Atomically increases the allowance granted to `spender` by the caller. This is an alternative to {approve} that can be used as a mitigation for problems described in {IERC20-approve}. Emits an {Approval} event indicating the updated allowance. Requirements: - `spender` cannot be the zero address."
      },
      "name()": {
        "details": "Returns the name of the token."
      },
      "symbol()": {
        "details": "Returns the symbol of the token, usually a shorter version of the name."
      },
      "totalSupply()": {
        "details": "See {IERC20-totalSupply}."
      },
      "transfer(address,uint256)": {
        "details": "See {IERC20-transfer}. Requirements: - `to` cannot be the zero address. - the caller must have a balance of at least `amount`."
      },
      "transferFrom(address,address,uint256)": {
        "details": "See {IERC20-transferFrom}. Emits an {Approval} event indicating the updated allowance. This is not required by the EIP. See the note at the beginning of {ERC20}. NOTE: Does not update the allowance if the current allowance is the maximum `uint256`. Requirements: - `from` and `to` cannot be the zero address. - `from` must have a balance of at least `amount`. - the caller must have allowance for ``from``'s tokens of at least `amount`."
      }
    },
    "version": 1
  },
  "userdoc": {
    "kind": "user",
    "methods": {},
    "version": 1
  }
}