{
  "contractName": "TokenCollection",
  "abi": [
    {
      "inputs": [
        {
          "internalType": "address",
          "name": "_tokenAddress",
          "type": "address"
        }
      ],
      "stateMutability": "nonpayable",
      "type": "constructor"
    },
    {
      "anonymous": false,
      "inputs": [
        {
          "indexed": true,
          "internalType": "address",
          "name": "depositor",
          "type": "address"
        },
        {
          "indexed": false,
          "internalType": "uint256",
          "name": "amount",
          "type": "uint256"
        }
      ],
      "name": "TokensDeposited",
      "type": "event"
    },
    {
      "inputs": [
        {
          "internalType": "address",
          "name": "",
          "type": "address"
        }
      ],
      "name": "balances",
      "outputs": [
        {
          "internalType": "uint256",
          "name": "",
          "type": "uint256"
        }
      ],
      "stateMutability": "view",
      "type": "function"
    },
    {
      "inputs": [],
      "name": "token",
      "outputs": [
        {
          "internalType": "contract ERC20",
          "name": "",
          "type": "address"
        }
      ],
      "stateMutability": "view",
      "type": "function"
    },
    {
      "inputs": [],
      "name": "totalCollected",
      "outputs": [
        {
          "internalType": "uint256",
          "name": "",
          "type": "uint256"
        }
      ],
      "stateMutability": "view",
      "type": "function"
    },
    {
      "inputs": [
        {
          "internalType": "uint256",
          "name": "_amount",
          "type": "uint256"
        }
      ],
      "name": "depositTokens",
      "outputs": [],
      "stateMutability": "nonpayable",
      "type": "function"
    }
  ],
  "bytecode": "0x608060405234801561001057600080fd5b50604051610729380380610729833981810160405281019061003291906100db565b806000806101000a81548173ffffffffffffffffffffffffffffffffffffffff021916908373ffffffffffffffffffffffffffffffffffffffff16021790555050610108565b600080fd5b600073ffffffffffffffffffffffffffffffffffffffff82169050919050565b60006100a88261007d565b9050919050565b6100b88161009d565b81146100c357600080fd5b50565b6000815190506100d5816100af565b92915050565b6000602082840312156100f1576100f0610078565b5b60006100ff848285016100c6565b91505092915050565b610612806101176000396000f3fe608060405234801561001057600080fd5b506004361061004c5760003560e01c806327e235e314610051578063dd49756e14610081578063e29eb8361461009d578063fc0c546a146100bb575b600080fd5b61006b6004803603810190610066919061031d565b6100d9565b6040516100789190610363565b60405180910390f35b61009b600480360381019061009691906103aa565b6100f1565b005b6100a5610290565b6040516100b29190610363565b60405180910390f35b6100c3610296565b6040516100d09190610436565b60405180910390f35b60016020528060005260406000206000915090505481565b60008054906101000a900473ffffffffffffffffffffffffffffffffffffffff1673ffffffffffffffffffffffffffffffffffffffff166323b872dd3330846040518463ffffffff1660e01b815260040161014e93929190610460565b6020604051808303816000875af115801561016d573d6000803e3d6000fd5b505050506040513d601f19601f8201168201806040525081019061019191906104cf565b6101d0576040517f08c379a00000000000000000000000000000000000000000000000000000000081526004016101c790610559565b60405180910390fd5b80600160003373ffffffffffffffffffffffffffffffffffffffff1673ffffffffffffffffffffffffffffffffffffffff168152602001908152602001600020600082825461021f91906105a8565b92505081905550806002600082825461023891906105a8565b925050819055503373ffffffffffffffffffffffffffffffffffffffff167f59062170a285eb80e8c6b8ced60428442a51910635005233fc4ce084a475845e826040516102859190610363565b60405180910390a250565b60025481565b60008054906101000a900473ffffffffffffffffffffffffffffffffffffffff1681565b600080fd5b600073ffffffffffffffffffffffffffffffffffffffff82169050919050565b60006102ea826102bf565b9050919050565b6102fa816102df565b811461030557600080fd5b50565b600081359050610317816102f1565b92915050565b600060208284031215610333576103326102ba565b5b600061034184828501610308565b91505092915050565b6000819050919050565b61035d8161034a565b82525050565b60006020820190506103786000830184610354565b92915050565b6103878161034a565b811461039257600080fd5b50565b6000813590506103a48161037e565b92915050565b6000602082840312156103c0576103bf6102ba565b5b60006103ce84828501610395565b91505092915050565b6000819050919050565b60006103fc6103f76103f2846102bf565b6103d7565b6102bf565b9050919050565b600061040e826103e1565b9050919050565b600061042082610403565b9050919050565b61043081610415565b82525050565b600060208201905061044b6000830184610427565b92915050565b61045a816102df565b82525050565b60006060820190506104756000830186610451565b6104826020830185610451565b61048f6040830184610354565b949350505050565b60008115159050919050565b6104ac81610497565b81146104b757600080fd5b50565b6000815190506104c9816104a3565b92915050565b6000602082840312156104e5576104e46102ba565b5b60006104f3848285016104ba565b91505092915050565b600082825260208201905092915050565b7f5472616e73666572206661696c65640000000000000000000000000000000000600082015250565b6000610543600f836104fc565b915061054e8261050d565b602082019050919050565b6000602082019050818103600083015261057281610536565b9050919050565b7f4e487b7100000000000000000000000000000000000000000000000000000000600052601160045260246000fd5b60006105b38261034a565b91506105be8361034a565b92508282019050808211156105d6576105d5610579565b5b9291505056fea264697066735822122044f185ae09bb0d18529371e4b134222bbd73e0fe17529755232460242242878e64736f6c63430008120033",
  "immutableReferences": {},
  "source": "// SPDX-License-Identifier: GPL-0.3.0\r\n\r\npragma solidity ^0.8.0;\r\n\r\ninterface ERC20 {\r\n    function transferFrom(\r\n        address sender,\r\n        address recipient,\r\n        uint256 amount\r\n    ) external returns (bool);\r\n}\r\n\r\ncontract TokenCollection {\r\n    ERC20 public token;\r\n    mapping(address => uint256) public balances;\r\n    uint256 public totalCollected;\r\n\r\n    event TokensDeposited(address indexed depositor, uint256 amount);\r\n\r\n    constructor(address _tokenAddress) {\r\n        token = ERC20(_tokenAddress);\r\n    }\r\n\r\n    function depositTokens(uint256 _amount) public {\r\n        require(\r\n            token.transferFrom(msg.sender, address(this), _amount),\r\n            \"Transfer failed\"\r\n        );\r\n        balances[msg.sender] += _amount;\r\n        totalCollected += _amount;\r\n        emit TokensDeposited(msg.sender, _amount);\r\n    }\r\n}\r\n",
  "sourcePath": "C:\\Users\\DELL\\Documents\\JIWAN_KOSH_PROJECT\\contracts\\dummy.sol",
  "compiler": {
    "name": "solc",
    "version": "0.8.18+commit.87f61d96.Emscripten.clang"
  },
  "schemaVersion": "3.4.12",
  "updatedAt": "2023-04-23T01:42:04.039Z",
  "devdoc": {
    "kind": "dev",
    "methods": {},
    "version": 1
  },
  "userdoc": {
    "kind": "user",
    "methods": {},
    "version": 1
  }
}